:100000000C9473010C94D8170C94AB010C94AB01B5
:100010000C94AB010C94AB010C94AB010C94AB01B0
:100020000C94AB010C94AB010C94F81C0C94CC1DFB
:100030000C9444160C94AB010C94AB010C94AB01E2
:100040000C94AB010C94AB010C94AB010C94AB0180
:100050000C94AB010C94E7160C94AB010C94AB011F
:100060000C94AB010C94AB010C94AB010C94AB0160
:100070000C94AB010C94AB010C94AB010C94AB0150
:100080000C94AB010C94AB010C94AB010C94AB0140
:100090000C94AB010C94AB010C94AB010C94AB0130
:1000A0000C94AB010C94AB010C94AB01140007222F
:1000B00015211A240500040016000B0017280A0059
:1000C0001D001B001000060019002A2891412C0079
:1000D000000000000D000924182113322B001C0021
:1000E0001128080012000C000E000F003600370027
:1000F0003800290090422801000000001E02E100A3
:10010000E000E20025022B002E002D00E3002E026D
:100110003900680069006A006B00010001000100FD
:1001200000000000350224002500262227003300AD
:100130002100220023001F0231001E001F002000AA
:1001400035002C0023520100000000001E02E100D7
:10015000E000E2002002230226022702E30021023F
:100160001F022F0030002F02300201002352010035
:100170000000000035022402310231002D0250003F
:10018000510052004F002202340034023300330287
:100190003500010001000100000000002900E1001D
:1001A000E000E20000002B0000000000E30000007F
:1001B000000000000000000000000100010001003C
:1001C0000000000000004D004A0000000000500048
:1001D000510052004F00000000004E004B006F0025
:1001E00000000100010001000000000010034D00AC
:1001F00069006E00690041007800650000001E0380
:1002000045004E0044004F0020004B006100740088
:10021000730075006800690072006F00000004033D
:10022000090409023B00020100A0FA0904000001D0
:100230000301010009211101000122440007058189
:100240000308000109040100010300000009211155
:100250000100012232000705820320000112010083
:100260000200000008EDFE3939010001020001051D
:10027000010980A101850319012AB700150126B7DC
:1002800000950175108100C0050C0901A1018504CC
:1002900019012AA002150126A002950175108100FE
:1002A000C005010906A101050719E029E715002588
:1002B00001950875018102950175088101050719ED
:1002C0000029FF150026FF00950675088100050826
:1002D0001901290515002501950575019102950162
:1002E00075039101C00011241FBECFEFDAE0DEBF1D
:1002F000CDBF04B603FE18C08091990290919A0276
:10030000A0919B02B0919C028730904BA740B04BCC
:1003100059F41092990210929A0210929B02109234
:100320009C02E0E0F8E3099511E0A0E0B1E0E6ED21
:10033000F0E402C005900D92AE3AB107D9F722E081
:10034000AEEAB1E001C01D92A939B207E1F70E94FF
:1003500043130C942A200C9400008430B8F46830C5
:10036000A8F4453098F450E095E0699F400D511D88
:100370001124FA0198E2899FE00DF11D1124EE0F7E
:10038000FF1FE455FF4F85919491089581E090E01F
:1003900008950E94AD01089581E008950E94CC0166
:1003A000089581E008950E94CC0108950E94D30130
:1003B000089508950E94D9010895A6E0B0E0E3EE03
:1003C000F1E00C949A1F49835A839E833091B501C2
:1003D00089819A8131111AC03E81332399F02223F9
:1003E00089F00E94B907182F682F89819A810E948D
:1003F000950769817A81812F0E948F0E2696E3E00E
:100400000C94B61F0E94A707182FF3CF0E94B907BC
:1004100069817A81F1CFFC01262F4081518162816F
:100420007381848195810E94DD010895CF93DF93CC
:10043000EC0161E00E940B02BE010E94CE01DF913F
:10044000CF910895CF93DF93EC0160E00E940B02FF
:10045000BE010E94DA01DF91CF91089581E00895F5
:100460000E942E020895CF93C82F0E946A068C2FF7
:100470000E9430022FEF84E39CE0215080409040A6
:10048000E1F700C00000CF91089581E00E9433029F
:100490000E940B17089580E00E9433020E942F17DC
:1004A00008950F931F93CF93DF938C0161E00E9417
:1004B0000B02EC01B8010E94D601811106C080E058
:1004C000DF91CF911F910F910895B801CE010E9445
:1004D000DF148823A1F3B801CE010E949F13882363
:1004E00071F3B801CE010E947513882341F3F8011E
:1004F0008581882361F0C330FCE7DF07E9F058F419
:10050000C115ECE7DE07A9F0C130DC47B9F0C8013E
:100510000E94D101D5CFCB358CE7D807A9F0CC35D7
:10052000ECE7DE0771F0CA35DC4789F70E94D00B93
:10053000EECF0E944502C3CF0E94D80B0E944B020F
:10054000BECF0E94C60BE3CF0E94D40BE0CF0E9427
:1005500021160E94CE0208950E94D2020E94261601
:100560000895089581E008950895CF93DF93D82FDB
:100570000E94B202C82F882319F08D2F0E94B40266
:100580008C2FDF91CF9108950895CF93C82F0E94AB
:10059000B1028C2F0E94B502CF91089580E00E9495
:1005A000C50208950E9428150E94C5020895CF93A0
:1005B0000E942815C82F8091B0018C1779F0C09344
:1005C000B0010E94B0166093B1017093B2018093A4
:1005D000B3019093B4018C2F0E94C502CF9108956E
:1005E000ADE0B0E0E6EFF2E00C949B1F488759873E
:1005F0006A877B878C879D8791110E94060B1F82DB
:1006000086E0FE013896DE01119601900D928A95E2
:10061000E1F78D8181110DC029813A814B815C8187
:100620006D817E818F810E94500A2D96E2E00C94AC
:10063000B71FCE0101960E9416028111EDCFF5CFB2
:10064000FC012481213021F4808191810E94EB07FB
:100650000895CF93C82F8823C9F08238C9F40E9427
:100660003C1581FD13C089E30E94E4150E94750BBF
:100670002FEF87EE93E0215080409040E1F700C0DB
:10068000000089E30E94EC150E94750BCF9108953C
:100690008338A1F40E943C1580FDF8CF83E50E94C9
:1006A000E4150E94750B2FEF81EE94E021508040FD
:1006B0009040E1F700C0000083E5E4CF8438A1F466
:1006C0000E943C1582FDE2CF87E40E94E4150E945F
:1006D000750B2FEF81EE94E0215080409040E1F7C0
:1006E00000C0000087E4CECF8CEF8C0F813A70F40D
:1006F0008C2F0E94A915882329F08C2F0E94EC15BD
:100700000E94750B8C2F0E94E415BECF80E28C0FE7
:10071000883048F4C77081E001C0880FCA95EAF7B5
:100720000E94E90AB1CFEBE5EC0FE33040F4F0E0D2
:10073000E45AFE4F808190E00E944A15A7CFC85A24
:10074000CB3108F0A3CFEC2FF0E0EE0FFF1FEA5DF6
:10075000FE4F808191810E946F1598CF882309F404
:100760004DC0823879F40E943C1581FF47C089E36F
:100770000E94E4150E94750B89E30E94EC150E940B
:10078000750B0895833859F40E943C1580FF36C0DC
:1007900083E50E94E4150E94750B83E5EECF843853
:1007A00059F40E943C1582FF29C087E40E94E41599
:1007B0000E94750B87E4E1CF9CEF980F913AE8F225
:1007C00090E2980F983050F4877091E001C0990F33
:1007D0008A95EAF7892F0E94EF0AD1CF9BE5980FFF
:1007E000933028F490E080E00E944A150895885ADA
:1007F0008B3120F490E080E00E946F1508951F93E4
:10080000CF93DF93182FEB010E942903209739F42F
:10081000812F0E94AE03DF91CF911F9108958FE940
:100820009FE00197F1F700C000002197EFCF70E043
:1008300060E0893311F460E570E00E94FF030895E1
:10084000882321F00E94E90A0E94750B08958823ED
:1008500021F00E94EF0A0E94750B0895B0E0A0E01D
:10086000E4E3F4E00C94941F6C01D62FC72FFC0135
:100870001581068102950F700E94DF0AE82E8823F9
:10088000F9F0E12E1123E1F08C2F807F803461F0AC
:1008900080E28D0F883008F18C2F807E803221F429
:1008A000D230D8F00023C9F08091710282FF15C0C8
:1008B00082E00E949A0B0E94DF0A91E0E82EE9266E
:1008C000BC2EB2949FE0B922FBE0FB15B8F1EB2DF2
:1008D000F0E0E45DFF4D0C94851FE12CF1CF0C2F6F
:1008E0000F70C07F11F00295007F112399F0002353
:1008F00059F080E28D0F883010F0D11107C0802FA1
:100900000E94E90A0E94750B8D2F5AC0802F0E9409
:10091000F90AF8CF8D2F0E94AE03002379F080E210
:100920008D0F883010F0D11104C0802F0E94EF0A83
:1009300003C0802F0E94FF0A0E94750BEB2DE85028
:10094000FF0B349720F40E9428150E94C502EE2068
:1009500089F00E94DB0A80FD0DC0F60115820E941D
:10096000D50A0E94F306C6010E9435060E94D50AE8
:100970000E940307CDB7DEB7E9E00C94B01F2C2F1F
:100980002F70F22EC07FC03219F0F29480EFF8225F
:10099000DD2341F0D130D1F1112309F444C000230B
:1009A000F1F0B2CF8091710282FD15C0112359F090
:1009B000FF2029F08F2D0E94E90A0E94750B80E02C
:1009C0000E942903BBCF80E00E94AE03FF2009F400
:1009D000B5CF8F2DABCF112369F0011104C08F2D3E
:1009E0000E942004ABCF013009F0A8CF8F2D0E94C8
:1009F0001D0BA4CF0111A2CF8F2D0E9427048F2D94
:100A00000E94290B8F2D0E940D0B98CF112321F0EE
:100A1000063008F093CFE3CF053008F08FCF8F2D4D
:100A20000E9427048BCF0023D1F3D93349F43FEF41
:100A300087EE93E0315080409040E1F700C0000025
:100A40008D2F0E94AE037ACF8C2F8695869583706A
:100A500069F0813009F072CF8D2F9C2F93701111A6
:100A600002C080E090E00E946F1568CF8D2F9C2F10
:100A70009370111102C080E090E00E944A155ECF91
:100A80008C2F8370A1F5111159CF4D2F42954695AA
:100A90004770440F440F2D2F2F7030E0042E02C0FA
:100AA000220F331F0A94E2F790E080E0D4FF09C0E0
:100AB0008FE090E002C0880F991F4A95E2F7809579
:100AC0009095C695C695C370822B932BC23049F082
:100AD00058F4C13019F00E94C30630CF0E94BA0604
:100AE0002DCF0E94CC062ACF0E94B70627CF86952D
:100AF000112311F08C2F8170882309F41FCF4D2F03
:100B0000429546954770440F440F2D2F2F7030E0CB
:100B1000042E02C0220F331F0A94E2F790E080E017
:100B2000D4FF09C08FE090E002C0880F991F4A955A
:100B3000E2F780959095C695C695C370822B932B4E
:100B4000C23049F058F4C13019F00E942E07F6CE99
:100B50000E942507F3CE0E943707F0CE0E94DB06E5
:100B6000EDCECF70112329F08C2F0E94F3068D2F2C
:100B700037CF8D2F0E9427048C2F0E940307DECED3
:100B8000D23F41F160F4D03FB9F0D13F81F0112361
:100B900009F443C00111B8CE8C2F8F711FC0D33F11
:100BA00001F1D43FA1F78091710282FD24C08C2F06
:100BB0008F71112311F312C0112341F0053008F099
:100BC000BDCE8C2F8F710E941507B8CE063008F06D
:100BD000B5CEF7CF8C2F8F711111CFCF0E94F306B6
:100BE000ADCE112329F08C2F8F710E94E706A6CE7F
:100BF0000E94E206A3CE112331F063E08C2F8F71A7
:100C00000E947C0B9BCE81E00E949A0B023008F47C
:100C100095CE82E00E949A0B91CE002359F0D933F1
:100C200009F00ECFEFEFF7EE23E0E150F040204067
:100C3000E1F704CF8C2F8F71A0CF0F931F93CF9329
:100C4000DF93EC01688179818D810E94F6078C0128
:100C50000E9440070E94B606B801CE010E942E04F1
:100C6000DF91CF911F910F910895CF93DF93EC0106
:100C70008C81882399F0CE010E945102811111C00C
:100C80000E94DF0A882351F08D81882339F08091FA
:100C9000710282FF03C082E00E949A0BDF91CF9124
:100CA0000895CE010E941D06CE010E942202F6CFB9
:100CB00090E080E00E944A1590E080E00E946F156D
:100CC0000E94060B0E94750B08950E94F4150E9465
:100CD000580608950E94F60A0E94650608959295A6
:100CE0009F70963091F058F4925F9F70923058F454
:100CF000803F19F030F4883E30F481E008959A5F27
:100D0000F4CF843FD1F380E00895883EB0F3813F73
:100D1000D1F7F3CFFC012481222339F08081918126
:100D20000E94EB070E946F06089580E00895A6E0F8
:100D3000B0E0EDE9F6E00C949B1F2696E2E00C94FF
:100D4000B71FA7E0B0E0E7EAF6E00C949B1F2796F8
:100D5000E2E00C94B71F08950E94AB0608950E942C
:100D6000AC069093CD018093CC01089508950E9424
:100D7000AF0608952091CC013091CD01822B932BA9
:100D80000E94AF0608952091CC013091CD018223BD
:100D900093230E94AF0608952091CC013091CD019C
:100DA000822793270E94AF0608950E94AB060895FC
:100DB0000E94D50608950E94D8069093CB01809397
:100DC000CA01089590E080E00E94DB06089521E0CA
:100DD00030E0A90102C0440F551F8A95E2F7CA010D
:100DE0000E94DB06089521E030E002C0220F331F8D
:100DF0008A95E2F78091CA019091CB01822B932BC7
:100E00000E94DB06089521E030E002C0220F331F6C
:100E10008A95E2F7209530958091CA019091CB0197
:100E2000822393230E94DB06089521E030E002C074
:100E3000220F331F8A95E2F78091CA019091CB016E
:100E4000822793270E94DB0608952091CA013091E2
:100E5000CB01822B932B0E94DB0608952091CA01BF
:100E60003091CB01822393230E94DB0608952091C9
:100E7000CA013091CB01822793270E94DB06089597
:100E80000895262F277091E001C0990F2A95EAF75F
:100E900023E0769567952A95E1F7660F771F660F31
:100EA000771FFA01E60FF71F50E040E0682F70E06F
:100EB0008191DF0111979B01042E02C03695279581
:100EC0000A94E2F7217021952827292328272C93BB
:100ED0004F5F5F4F4430510559F70895A82FA77011
:100EE00023E0969587952A95E1F7880F991F880F3B
:100EF000991FFB01E80FF91F50E040E080E02191CD
:100F000030E00A2E02C0369527950A94E2F7217048
:100F10003327042E01C0220F0A94EAF7822B4F5F79
:100F20005F4F4430510559F70895262F983070F4DB
:100F3000853060F4682F70E085E0989F600D711D2A
:100F4000112446EB51E0822F0E9441070895292F7A
:100F5000983068F4853058F490E066EB71E035E045
:100F6000239F800D911D11240E946E07089580E03B
:100F70000895B0E0A0E0EFEBF7E00C94941F7C0143
:100F80000091CA011091CB018091CC019091CD01CB
:100F9000082B192BCFE0D0E0CC24C394D12CBC2E4D
:100FA000C6010C2E02C0880F991F0A94E2F7802315
:100FB0009123892B49F4219790F7B12C8B2DCDB734
:100FC000DEB7E9E00C94B01FB7018C2F0E949B0E96
:100FD000019789F3F3CFCF93DF93EC010E94B90718
:100FE000BE010E949B0EDF91CF9108951F93CF9376
:100FF000DF93EB019091B501992339F0CB010E9469
:10100000EB07DF91CF911F910895882369F0CB0101
:101010000E94B907182F682FCE010E949507BE01C4
:10102000812F0E949B0EEDCFCB010E94A707182FA6
:10103000F6CF1F93CF93DF93C091CE0117E080913D
:10104000CF018C1304C0DF91CF911F910895D0E0A0
:101050001C9FF0011D9FF00D1124E053FE4F2081D5
:101060003181428153816481758186810E94A1060C
:101070002196C770E4CF2091080230910902409177
:101080000A0250910B0260910C0270910D02809146
:101090000E020E94A1060895CF93DF9380910E0265
:1010A000807F09F04DC080910D02882309F448C06B
:1010B000E091CE015091CF01C0910902D091080278
:1010C00060910A0270910B0247E05E17C9F18E2F02
:1010D00090E0E49FF0011124E053FE4F248122238D
:1010E00091F1489FF001499FF00D1124DF01A053B9
:1010F000BE4F11962C9111972C1325C02C912D13B6
:1011000022C015962C91159721111DC012962D9174
:101110003C91261B370B283C3105A8F480910E0228
:101120008F70806180930E02EA52FE4F80818F7033
:101130008061808388E092E00E9435060E94190851
:10114000DF91CF910895FC013196E770BECF482F13
:101150002091CE019091CF0157E0291302C080E089
:10116000089530E0529FF001539FF00D1124E05399
:10117000FE4F8181681306C08081481303C08581BA
:101180008111EECF2F5F3F4F2770E7CFA4E1B0E092
:10119000ECECF8E00C94911F8C0186E0F801DE0184
:1011A0001F9601900D928A95E1F7F8018481E58000
:1011B00098E0A92E92E0B92E90910C0291111FC0D7
:1011C0008823D1F0EE20A9F0C8010E948A06F82EEB
:1011D000882379F087E0F801D50101900D928A9576
:1011E000E1F7C5010E9420030E944C080E943B08C1
:1011F0005FC0C8010E943506FF24F39459C0C08027
:10120000D18082809380F0900D0220910A0230916B
:101210000B02A401421B530BFF2009F4F9C0483C08
:10122000510508F0A7C0882309F442C09091090233
:1012300080910E02282F207F09F05CC09D1116C0FE
:1012400090910802C91212C0E1104EC08F708061E7
:1012500080930E020E943B0888E092E00E943506CF
:1012600080910E02F8018683F12C22C0E1103CC06F
:101270006D2D8C2D0E94A7086D2D8C2D0E94A70826
:10128000E82E8111F1CFCF86D88A8F8598890E9468
:10129000EB07292F22952F70243078F49F7022308D
:1012A000A8F09923B9F0F8019681907F99F4FE2C6B
:1012B0008F2D6496ECE00C94AD1F2A5F2F702230C6
:1012C00068F0C8010E943506EF2CF1CF992311F088
:1012D000882369F3805E883050F3F3CF803F38F382
:1012E000815F833070F7E3CF80910E02816080933D
:1012F0000E02BACF9D1113C090910802C9120FC0FF
:10130000E1100DC08683C8010E94350687E0F80110
:10131000A8E0B2E001900D928A95E1F767CFC8018D
:101320000E948A06882309F464CFEE2009F461CF75
:1013300080910E02803288F02091080230910902DB
:10134000398728879B868A8690910C029C871D8608
:101350008E87CE0108960E94350687E0F801A8E046
:10136000B2E001900D928A95E1F70E944C080E942C
:101370003B0842CF90910E02292F207FA1F4682DC7
:101380009A8A898AA6017A899E2D0E94970688E00A
:1013900092E00E94350687E0F50111928A95E9F7FF
:1013A0000E943B0861CF882309F482CF8091090213
:1013B0008D1110C080910802C8120CC0E1100AC043
:1013C0009683C8010E94350687E0F50111928A953F
:1013D000E9F76ECFC8010E948A06882309F409CF75
:1013E000EE2009F406CF80910E02803208F4B5CFCA
:1013F00020910802309109023A8329839C828B82D2
:1014000090910C029D831E828F83CE010196A3CF03
:10141000483C5105B8F5882309F4EECEFE2CEE20A9
:1014200009F4E7CE809109028D111EC08091080257
:10143000C8121AC080910E0280FD0DC0982F907FB7
:1014400051F08683903F09F45ECF982F907F905F94
:101450008F70892B57CF87E0F801A8E0B2E00190A8
:101460000D928A95E1F724CFC8010E948A06811166
:1014700074CF80910E02816080930E02C8010E9499
:10148000350616CF682D9A8A898AA6017A899E2DFB
:101490000E94970687E0F50111928A95E9F7A6CE9A
:1014A000AEE0B0E0E6E5FAE00C949A1F28873987B1
:1014B0004A875B876C877D878E87CE0108960E945E
:1014C000C6088823B1F06C85662341F028853985EC
:1014D0004A855B857D858E850E94A10617E08091F7
:1014E000CE019091CF0189133DC02E96E3E00C947C
:1014F000B61F87E0FE013896DE01119601900D922D
:101500008A95E1F78C85882349F32091CF0130E05B
:10151000C9010196877099274091CE014817190695
:1015200099F097E0929FD001939FB00D1124A053A2
:10153000BE4FFE01319601900D929A95E1F780938E
:10154000CF010E941908CACF0E946A061092CF01EB
:101550001092CE0187E0E8E0F2E0DF011D928A956B
:10156000E9F7BCCF819FC001112480539E4F0E9498
:10157000C608882309F4B9CFE091CE011E9FF0017F
:101580001124E053FE4F20813181428153816481D7
:10159000758186810E94A1068091CE0190E001961E
:1015A000877099278093CE019ACF809117028695F4
:1015B0008695869508958091170287700895909179
:1015C0001702977081E009F480E00895809123026A
:1015D000089590912302892B80932302089580958A
:1015E000909123029823909323020895109223024E
:1015F000089590912202892B80932202089580956C
:101600009091220298239093220208951092220230
:10161000089508950E94090B089590911802292FAA
:10162000282331F080958923809318020E940A0BA9
:10163000089508950E94190B089590911902292F79
:101640002823281729F0982B909319020E941A0B2F
:10165000089590911902292F282331F0809589232C
:10166000809319020E941A0B089580911902882311
:1016700029F01092190280E00E941A0B08950F932E
:101680001F93CF93DF930091000110910101C0914E
:10169000230280912202C82B80911902882331F005
:1016A000C82B0E94941581110E94350BF801C0834C
:1016B000C0910001D091010148E050E06FE072E07C
:1016C000CE010E94C21F892B59F088E0FE01AFE0D5
:1016D000B2E001900D928A95E1F7CE010E943F158C
:1016E000DF91CF911F910F9108950E943F0B0895B4
:1016F00008950E94780B08959091710292FF11C095
:1017000098E0899F90011124622B609317020E9438
:10171000F306809117028695869586950E94790B2F
:1017200008950E94F30608951092170280E00E9427
:10173000790B089590911702809589238093170261
:10174000282F277069F4891759F09091710292FF40
:1017500007C08695869586950E9403070E94940B84
:1017600008959091710292FB222720F9281769F0C1
:1017700080FB92F9909371028091700290917102B6
:101780000E94F90B82E00E949A0B089580917102E9
:1017900082FB882780F991E089270E94B10B089588
:1017A00081E00E94B10B089580E00E94B10B089582
:1017B0006FEF7FEF90E080E00E941420089590E0AA
:1017C00080E00E94E01F21E0853E9E4F09F020E06E
:1017D000822F089582E090E00E94D81F089583E050
:1017E00090E00E94D81F089584E090E00E94E01FDE
:1017F0000895BC0184E090E00E9414200895AB019C
:10180000BC018FE090E00E9408200895AB01BC016C
:1018100083E190E00E940820089560E070E0CB0131
:101820000E94060C089560E070E0CB010E94FF0B5F
:101830000E940D0C0895A8E0B0E0E1E2FCE00C94F9
:101840009B1F65EE7EEF90E080E00E94142060E038
:1018500082E090E00E94F61F81E090E09093CD013D
:101860008093CC0161E083E090E00E94F61F60E08D
:1018700074E184E090E00E94142060E086E090E053
:101880000E94F61F60E087E090E00E94F61F40E0B3
:1018900050E0BA0188E090E00E94082060E083E216
:1018A00090E00E94F61F60E08CE090E00E94F61F3E
:1018B00060E08DE090E00E94F61F19821A821B8280
:1018C0001C821D821E821F82188648E050E067E15C
:1018D00070E0CE0101960E94E61F40E050E0BA01A0
:1018E0008FE190E00E9408200E94130C2896E2E00D
:1018F0000C94B71F0E941B0C0895682F8EE090E097
:101900000E94F61F0895A6E0B0E0E9E8FCE00C9420
:10191000991F0E94A4168C018091240290912502A7
:101920008017910781F019821A820E94A416682FED
:1019300049815A81792F80E090E00E94F002109353
:101940002502009324022696E4E00C94B51F0E9421
:10195000B70F6093320270933302809334029093F6
:10196000350260932E0270932F0280933002909381
:1019700031020895089508950E94BA0C08950895BB
:101980000E94BF0C089581E0089581ED9FE00E94C0
:1019900058130E94BB0C0E94BC0C08950E944F116A
:1019A0000895089508950E94D10C0E94D20C0895C4
:1019B0000E94DF0B811102C00E947A0C0E94EA0B88
:1019C000809336020E94F40B909371028093700210
:1019D0000E94EF0B90E00E94B7068091CA0190919F
:1019E000CB010E94D80608950E949B160E94910F79
:1019F0000E9455110E94A6100E94D80C0E94C40299
:101A00000E945D130E9467110E94C00C0895A6E019
:101A1000B0E0EDE0FDE00C94921F0E94C30C811138
:101A20000AC00E94830C0E944F110E94D702269682
:101A3000EBE00C94AE1F0E94C91086E2A82E82E053
:101A4000B82E750110E0F70101917F01812F0E94EE
:101A5000DB0F1F5F183009F441C00817A1F3809114
:101A6000360281FD0E94E10F0E94CE0CC82E10E0CC
:101A700099249394812F0E94DB0F082FF501819107
:101A80005F01081729F1F12CEE24E394D02ED8261B
:101A90008D2D8E21A9F0CC2099F0F9821A830E9415
:101AA000A4169C838B839D8291E0802F8E2109F464
:101AB00090E049815A816B817C818D810E94F00286
:101AC000F394EE0CF5E0FF12E3CFF50131970083BC
:101AD0001F5F183079F60E94A70CA5CF0813BFCF5F
:101AE000A0CF1F93CF93DF930E94A00EEC01C115EE
:101AF00080E5D807F0F5C11580E4D80708F09CC050
:101B0000C03ED10520F5CD3CD10508F082C0C83AD1
:101B1000D10578F4C53AD10508F073C0C130D105BC
:101B200019F1209709F1C430D105F0F4D0E0C0E0FC
:101B30001BC0C33CD105D0F7C85AD0E0CC0FDD1F85
:101B4000C15ADE4F0990D881C02DD4640DC0C11593
:101B500080E2D80708F0D1C0C11581E0D80708F0AD
:101B60005AC0C83ED10510F7CE01DF91CF911F9129
:101B70000895C03682E5D80718F5C03482E5D80745
:101B800008F06BC0C03282E5D80708F05FC0C1150D
:101B900082E5D80708F497C02C2F2695269580E279
:101BA000289F900111248C2F8370C1E0D0E002C0E7
:101BB000CC0FDD1F8A95E2F7C22BD32BDD68D4CF83
:101BC000C03A82E5D80760F4C03882E5D80708F447
:101BD00059C0CF71D0E0DC2FCC27C46FD06AC4CFFE
:101BE000C03C82E5D80708F462C0C03E82E5D80751
:101BF00008F09CCFDC2FCC27CC27DF71C06FD06AD8
:101C0000B3CFC55AD0E0CB56DE4FC881D0E0D06408
:101C1000ABCFD065A9CF8D2F0E94420F182FCE01D8
:101C200099270E94A00EC12FD0E0DC2FCC27CC2713
:101C3000DF71C82BD92B98CFCE0199270E94A00E17
:101C4000CC27DF70C82BD92BD06A8ECFCF71D0E0D4
:101C5000DC2FCC27C16FD06A87CF2C2F26952695F5
:101C6000277080E2289F900111248C2F8370C1E09F
:101C7000D0E002C0CC0FDD1F8A95E2F7C22BD32B38
:101C8000DC6872CF2C2F26952695277080E2289F3E
:101C9000900111248C2F8370C1E0D0E002C0CC0FE2
:101CA000DD1F8A95E2F7C22BD32BDA685DCF8C2F2C
:101CB0008F710E94420FC82FD0E0DC2FCC27CC2799
:101CC000DF71D06251CF8C2F8F710E94420F55E08F
:101CD000D695C7955A95E1F7CF70D0E0DC2FCC2789
:101CE000282F30E084FF05C044E0220F331F4A95BF
:101CF000E1F7C22BD32BD06937CF8D2F8F710E9484
:101D0000420F182FCE0199270E94A00EC12FD0E0BC
:101D1000DC2FCC27CC27DF71C82BD92BD2CF462F75
:101D2000783030F4653020F4672F0E94C90108959F
:101D300090E080E008950E948F0E0E94710D08953A
:101D400082389105B9F1B0F48133910509F47DC071
:101D500048F48932910509F46DC08A32910509F47D
:101D60007BC008958533910509F45FC089339105DF
:101D700009F10895833E9105D9F138F4803E91052B
:101D800029F1823E910579F10895863E9105D9F1B8
:101D9000873E910509F43EC0843E910541F52091AE
:101DA000710221FF24C08091700284FD19C087EE6A
:101DB00090E0089520917002237009F05AC020919C
:101DC000710223FF14C089E290E00895209170020F
:101DD00020FD38C03091710230FF09C024FF43C09C
:101DE00090E080E008952091700222FDF7CF0895E1
:101DF0002091700222FD3AC03091710230FD39C04D
:101E000024FFF5CFEDCF2091700223FFF0CF24FD0A
:101E1000E7CFCDCF2091700223FD2EC0309171020B
:101E200031FFEECF84EE90E008952091700225FFFF
:101E3000DECFC9CF2091700225FD21C02091710213
:101E400023FFD5CF89E390E0D2CF2091700226FF07
:101E5000CECF8AE290E008952091700226FFC7CF8E
:101E600081E390E0089583EE90E0089582EE90E0A3
:101E7000089580EE90E0089586EE90E0089585E361
:101E800090E008959091700292FF10C041E0282FD9
:101E90002471243009F040E031E0282F28712830E7
:101EA00009F030E0431711F02CE0822793FF10C0B7
:101EB00041E0282F2471243109F040E031E0282F3F
:101EC0002871283109F030E0431711F02CE0822707
:101ED0003091710230FF10C051E0282F2171213064
:101EE00009F050E041E0282F2871283009F040E047
:101EF000541711F029E0822731FF10C041E0282F4C
:101F00002171213109F040E031E0282F287128317A
:101F100009F030E0431711F029E0822794FD877E15
:101F2000089510927202109273021092740210922D
:101F300075020895CF92DF92EF92FF926B017C01C0
:101F40000E944F1181110EC00E94B016C61AD70A06
:101F5000E80AF90AC0927202D0927302E092740207
:101F6000F0927502FF90EF90DF90CF9008950F935D
:101F70001F930E944F11882329F00E94B0161F91D1
:101F80000F9108950E94B016009172021091730291
:101F90002091740230917502600F711F821F931F90
:101FA000EECF80E0089508950E94D30F089508951C
:101FB0000E94D70F0895E82FF0E0E158FD4F80818F
:101FC0000895089508950E94E20F0895EF92FF92F8
:101FD0001F93CF93DF9300D000D0CDB7DEB70E9420
:101FE0004F11182F60918702882309F447C0198286
:101FF0001A821B821C82862F90E09E012F5F3F4F2A
:102000007901B90181589D4F0E9475118823E9F02B
:102010008091760290E044E050E0B70181589D4FF6
:102020000E94C21F21E020933702892BC9F410E0DF
:102030000E94D80F812F0F900F900F900F90DF917B
:10204000CF911F91FF90EF900895809137028823E0
:1020500071F384E0F70111928A95E9F71092370243
:10206000E0917602F0E0E158FD4F89819A81AB81E1
:10207000BC8180839183A283B383DACF70E06158FF
:102080007D4F8091760290E081589D4F0E94FC1117
:102090000E94E30FCFCF1F93CF93DF9328E931E066
:1020A000C1E0D0E0D90150E040E08D918F3F91F048
:1020B000E82FE295EF70F0E011A18F70BE0101C032
:1020C000660F8A95EAF7962F9095912391A382A1A6
:1020D000862B82A34F5F5F4F4530510531F72B5F51
:1020E0003F4F81E02C3A3807E9F6DF91CF911F91FD
:1020F0000895CF93DF93AC01A62FB0E085E0689FF1
:10210000F0011124E856FE4F70E081E060E091910B
:102110009F3FD1F0C92FC295CF70D0E028A130E009
:102120009F7002C0359527959A95E2F720FD0CC067
:10213000282F622B7F5F880F753049F7A40FB51FDA
:102140006C93DF91CF91089520E0F3CF809102014D
:102150008091020194E0811190E09093870284E0E5
:10216000891B809376020E944B1088E0EFE7F2E033
:10217000DF01982F1D929A95E9F7E7E7F2E0DF017A
:102180001D928A95E9F784E00E9407110E94D40FFE
:102190000895A8E0B0E0EFECF0E10C94981F8E01F8
:1021A0000F5F1F4F88E0F80111928A95E9F7F12C33
:1021B0006F2DC8010E947910F394F4E0FF12F8CF5C
:1021C00048E050E0B80187E792E00E94C21F21E09A
:1021D000009709F420E0892B41F088E0F801A7E797
:1021E000B2E001900D928A95E1F76091870270E06C
:1021F00061587D4F44E087E792E00E940811182F54
:102200000E94E60F812B2896E5E00C94B41F0895F8
:10221000B0E0A0E0EEE0F1E10C94951F6C017B01D1
:10222000042FC22F222379F081E080933A020E948A
:10223000A416909339028093380280E0CDB7DEB7C0
:10224000E8E00C94B11FD0913A02DD23B1F3809104
:102250003802909139020E94BC16059770F310E085
:10226000A801B601C7010E94C21F892B31F0A80145
:10227000B601C7010E94CF1FCD2F10923A028C2FBA
:10228000DDCFCF930E94781FC82F811102C00E941A
:10229000731F8C2FCF91089580913E0208958091F5
:1022A0003D0208950E944F1108950E9441118093AC
:1022B0003D020E94521180933E020E944C11809375
:1022C00002010E944F1181110E94AB1108950E94DA
:1022D0004F11811102C00E94AE11089581E09091CA
:1022E0003F029A3008F080E008950F931F93CF9338
:1022F000DF93EC018B0180913F028A30B8F4B80182
:10230000CE010E94F911C82F811122C080913F0295
:102310008F3FB9F40E94A41690933C0280933B0235
:102320008C2FDF91CF911F910F91089580913B02E7
:1023300090913C020E94BC16843F914000F7C0E09F
:10234000EFCF8F5F80933F028A3020F7C1E0E8CF64
:1023500010923F02E5CF0E94921708950E949517B0
:102360000895B0E0A0E0E7EBF1E10C94961F79014D
:10237000C82F880FDD0B41155105A9F0FE0193E030
:10238000EE0FFF1F9A95E1F7ED5FFE4F818192817D
:10239000805C9D4F208130E04217530708F49A017A
:1023A000A9010E94CF1FCE010E947E18D82E88233B
:1023B000D1F001151105B9F083E0CC0FDD1F8A952E
:1023C000E1F7FE01ED5FFE4F438150E00417150772
:1023D00008F4A801CD5FDE4F6C817D81605C7D4F8C
:1023E000C7010E94CF1F8D2DCDB7DEB7E7E00C945B
:1023F000B21F0E94F31208950E940A130895A4E0E8
:10240000B0E0E5E0F2E10C94991F60915502709103
:10241000560280915702909158020E94CB1611E00B
:10242000643671058105910518F10E94B70F6E5F42
:102430007F4F8F4F9F4F69837A838B839C8310E0FC
:1024400000E030E020E044E050E0BE016F5F7F4FED
:1024500082E00E94B111182F882351F00E94B0161B
:1024600060935502709356028093570290935802DE
:10247000812F2496E4E00C94B51FB0E0A0E0E3E4E3
:10248000F2E10C94931F7C015B016A010E946E11C2
:1024900001E010E0882311F00AE010E0C1E0D0E094
:1024A000B501C701F6010995811104C021960C17E9
:1024B0001D072CF4CDB7DEB7EAE00C94AF1FCC9F1C
:1024C0009001CD9F300D300D112490E080E045E368
:1024D0004A95F1F70000019682179307C1F7E0CF04
:1024E000A5E0B0E0E6E7F2E10C94931F5B01E09019
:1024F000AC01F090AD0101E010E09E012B5F3F4F79
:1025000050E040E070E060E080E00E94B111182FE0
:10251000882309F44BC067018FEFC81AD80A60916D
:1025200051027091520280915302909154020E9484
:10253000CB16643671058105910580F104E010E049
:102540009E012F5F3F4F50E040E070E060E081E08F
:102550000E94B111F82E64E070E0C6010E945E1383
:1025600011E09D81981310E01F2159F10E94B016CF
:1025700060935102709352028093530290935402DD
:1025800089819A81AB81BC8180934D0290934E02E8
:10259000A0934F02B093500211E013C064E070E0CA
:1025A000C6010E945E139D818913C8CFF701818106
:1025B0009281A381B48189839A83AB83BC831111F7
:1025C000DFCF80914D0290914E02A0914F02B091C9
:1025D0005002F50180839183A283B383812F2596D6
:1025E000EAE00C94AF1F0F931F93CF93DF93EC019E
:1025F0008B0140E752E10E943D12882331F04FEFFA
:1026000051E1B801CE010E943D12DF91CF911F919F
:102610000F9108950F931F93CF93DF93C091AC0157
:10262000D091AD01CE01019624E0FB01DC010190C7
:102630000D922A95E1F764E070E00E945E138883B2
:102640006D817E818F8198850091490210914A02A7
:1026500020914B0230914C0260177107820793075B
:1026600051F06093490270934A0280934B02909319
:102670004C020E949A0FDF91CF911F910F91089504
:102680000E94070D08950E943D160E942F1A0E9475
:10269000C50C0E94491A0E94F40C0E94561A0E940E
:1026A0005B1A0E9440130E94751A0E94D30CF7CF48
:1026B0009093AF018093AE0108950895FC01680FD7
:1026C000791F8FEF91E3E617F70709F40895219139
:1026D000822728E030E087FF06C0880F8927215035
:1026E0003109C9F7F0CF880FFACFCF93DF93EB0111
:1026F00086319C4711F50E94E60A9D81992399F045
:102700008A7A91E009F490E090935902811109C00E
:1027100089E20E94E4150E94750B80E0DF91CF9161
:10272000089585E3F6CF80915902811104C089E2B2
:102730000E94EC15F0CF85E3FBCF81E0EFCFCF9384
:10274000DF93EC01FB018581882309F4D2C09E014F
:1027500030572332310508F0B2C00E94F40B909339
:10276000710280937002FE01E150F047E232F10500
:1027700020F4E85CFF4D0C94851F8091700281600D
:102780008093700293C0809171028860809371027F
:102790008DC0809170028260F3CF8091700284605E
:1027A000EFCF809170028860EBCF809171028160E1
:1027B000EDCF809171028260E9CF809170028061DB
:1027C000DFCF809170028062DBCF809170028064E5
:1027D000D7CF0E946A06809170028068D1CF809125
:1027E00070028C60CDCF809171028360CFCF8091D9
:1027F00070028E7FC5CF80917102877FC7CF809195
:1028000070028D7FBDCF809170028B7FB9CF809198
:102810007002877FB5CF809171028E7FB7CF809194
:1028200071028D7FB3CF809170028F7EA9CF80918E
:1028300070028F7DA5CF809170028F7BA1CF0E9407
:102840006A06809170028F779BCF80917002837FA0
:1028500097CF809171028C7F99CF8091700282FB1B
:10286000992790F921E0922790FB82F990FB83F958
:1028700087CF80917102982F909591708E7F892BD0
:1028800090FB81F983CF90917002892F8F7B96FF07
:10289000806476CF0E946A0690917002892F97FB20
:1028A00087F980586DCF81E00E947D0C8091700285
:1028B000909171020E94F90B0E946A0680E0DF91FC
:1028C000CF91089580E0F0CF90917002892F8F7E94
:1028D00094FF806155CF90917002892F8E7F90FF79
:1028E00081604ECF90917102892F877F93FF88601E
:1028F0004DCF81E0E4CF0F931F93CF93DF93C42F8D
:10290000D22FFC0185818823C9F040935C020E948C
:10291000A41690935B0280935A0280E28C0F883059
:1029200040F4C77081E001C0880FCA95EAF70E94A1
:102930002004DF91CF911F910F91089510915C02B7
:10294000141332C080915A0290915B020E94BC160F
:10295000883C910548F5C0E2CD0F1D17B9F080E223
:10296000810F883040F4177081E001C0880F1A95FC
:10297000EAF70E942704C83048F481E09D2F977041
:1029800001C0880F9A95EAF70E942004802F0E94C8
:102990001704C83070F6D77081E001C0880FDA954F
:1029A000EAF70E942704C5CF80E28C0F883008F632
:1029B000C77081E001C0880FCA95EAF7F2CF0F9384
:1029C000DB0188519C4787309105A0F5FC01E65A50
:1029D000FF4D0C94851F06E221EE41EE6AE17CE793
:1029E000CD010E947B1480E00F91089507E225EE4F
:1029F00045EE6BE17CE7F4CF06E221EE40EE68E1C4
:102A00007CE7EECF07E225EE44EE69E17CE7E8CF14
:102A100006E221EE42EE6CE17CE7E2CF07E225EE32
:102A200046EE6DE17CE7DCCF08E221E045EE6EE1A9
:102A30007CE7D6CF15968C91882319F010925C0212
:102A4000D3CF81E0D1CF9093630280936202089547
:102A50000E944F11811103C080915D020895E091A1
:102A60006202F0916302309729F00190F081E02D2D
:102A70000995089580E008950E9428150895E09131
:102A80006202F0916302309721F00280F381E02D21
:102A900009950895A3E0B0E0E0E5F5E10C949B1FF3
:102AA000209160023091610228173907A1F09093BC
:102AB000610280936002E0916202F09163023097BC
:102AC00051F023E029839B838A830084F185E02DE4
:102AD000CE01019609952396E2E00C94B71FA3E07E
:102AE000B0E0E5E7F5E10C949B1F20915E02309188
:102AF0005F0228173907A1F090935F0280935E026E
:102B0000E0916202F0916302309751F024E0298352
:102B10009B838A830084F185E02DCE01019609957F
:102B20002396E2E00C94B71F4091000150910101FF
:102B30009A012E5F3F4F485F5F4F80E024173507B3
:102B400009F40895F90191919F019923B9F38F5FD9
:102B5000F5CF882371F02091000130910101F90136
:102B60003296285F3F4F9191981729F0E217F307AB
:102B7000D1F780E0089581E008959C01FC01329630
:102B80009FEF80E04191461751F09F3F19F44111AA
:102B900001C0982F8F5F8630A9F79F3F09F40895F1
:102BA000290F311D97FD3A95F90162830895FC01C3
:102BB000329608962191261303C0DF0111971C92CB
:102BC000E817F907B9F70895682F809100019091EF
:102BD00001010E94BD150895682F80910001909118
:102BE00001010E94D7150895E0910001F0910101C3
:102BF000329686E0DF011D928A95E9F708950895DF
:102C00000E94FF150895811106C081E0809364023F
:102C10000E940016089582E0F9CF83E08093640259
:102C20000E94001608950E940316089581E0809383
:102C300064020E94001608950E94161608950895D1
:102C400008950E9420160895089508950E941F1661
:102C50000895CF930E9424160E94C9100E94251641
:102C6000C0E08C2F0E94DB0F811105C0CF5FC83000
:102C7000C1F7CF91089581E0FCCF85B7806885BF0B
:102C800085B7806885BF08951F921FB61F921124D3
:102C90008F939F93AF93BF9380916502811113C06F
:102CA0008091880290918902A0918A02B0918B0252
:102CB0004196A11DB11D8093880290938902A09333
:102CC0008A02B0938B02BF91AF919F918F911F9019
:102CD0001FBE1F90189580919002843031F10E94A0
:102CE000A7021092650288E190E020E40FB6F89404
:102CF000A895809360000FBE2093600083B7817F0A
:102D0000846083BF83B7816083BF7894889583B7DD
:102D10008E7F83BF0FB6F894A8958091600088617C
:102D200080936000109260000FBE08950E946A06B2
:102D30000E94AC02089582E084BD93E095BD9AEFB5
:102D400097BD80936E0008952FB7F8948091880204
:102D500090918902A0918A02B0918B022FBF0895B1
:102D60002FB7F894609188027091890280918A024D
:102D700090918B022FBF08959C014FB7F8948091DA
:102D8000880290918902A0918A02B0918B024FBF74
:102D9000821B930B0895CF92DF92EF92FF922FB791
:102DA000F894C0908802D0908902E0908A02F09056
:102DB0008B022FBFA7019601261B370B480B590B1F
:102DC000CA01B901FF90EF90DF90CF9008957894F9
:102DD0001F921FB61F9211248F939F93AF93BF939F
:102DE0008091880290918902A0918A02B0918B0211
:102DF0000196A11DB11D8093880290938902A09332
:102E00008A02B0938B02BF91AF919F918F911F90D7
:102E10001FBE1F90189581E08093E00080E28093B0
:102E2000D8001092C9008FE19EE40197F1F700C02D
:102E3000000087E090EBDC018093990290939A0266
:102E4000A0939B02B0939C0288E19CE00FB6F8949B
:102E5000A895809360000FBE90936000FFCF88E13B
:102E60009CE00FB6F894A895809360000FBE9093F5
:102E70006000FFCF8EE1489B02C08150E1F7489B84
:102E8000FECF0895589880E28A95F1F7589A0895F0
:102E9000FC013BE03A95F1F798E020E080E031E07A
:102EA00040E14A95F1F7880F489B02C081602327D3
:102EB00042E04A95F1F7000040E14A95F1F7915060
:102EC00079F790E19A95F1F799B132E03A95F1F7F7
:102ED000000040E14A95F1F7917092272081920F0E
:102EE00090830895A1E0B0E0E8E7F7E10C94971F24
:102EF00019828C017C01E60EF11C0E151F0541F4B0
:102F000081E09981911180E02196E6E00C94B31F55
:102F10000E943A17CE0101960E944817F80181934A
:102F20008F01EBCF509A589A08955098589AE89A82
:102F3000E9E6F0E080818C7F808308956150770B13
:102F400091E001C0990F6A95EAF720E031E0911114
:102F500008C0222391F0589A80E28A95F1F7589898
:102F60000895492F482339F0589A232740E24A957B
:102F7000F1F79695ECCF5898F9CF5898EDCFFF928E
:102F80000F931F93CF93DF93EC018C01060F111D5C
:102F9000C017D10729F4CDB7DEB7E5E00C94B41F14
:102FA000F9900E94421768E08F2D0E949E17F0CF83
:102FB0001F920F920FB60F9211240F931F932F930E
:102FC0003F934F935F936F937F938F939F93AF93B1
:102FD000BF93EF93FF93CF93DF930F92CDB7DEB7FD
:102FE00019820E943A17CE0101960E944817082FB5
:102FF000069506950695282F22952570902F957099
:10300000290F922F937026952695920F98279770E7
:103010008981982B09F05CC0043008F059C080E128
:103020008A95F1F7589A509A82E08A95F1F700C094
:10303000589888E0089F80011124D801AD5FBE4FE9
:103040001696ED91FC9117973097A9F06091AC011D
:103050007091AD0114962D913C911597260F371F55
:1030600011968D919C911297680F791F13964C9130
:1030700013978C910995F801ED5FFE4F63816623EC
:1030800051F02091AC013091AD0184819581820F86
:10309000931F0E94BF170E94421780E18A95F1F7A3
:1030A00058985098589A80E18A95F1F7F801ED5FA9
:1030B000FE4F6081662351F02091AC013091AD014B
:1030C00081819281820F931F0E9472170E943A178A
:1030D0000F90DF91CF91FF91EF91BF91AF919F91B1
:1030E0008F917F916F915F914F913F912F911F91A0
:1030F0000F910F900FBE0F901F9018950F931F9375
:10310000CF93DF93EC0104970CF04CC0F894509AE5
:10311000589885E08A95F1F700009C2F9695957058
:103120008C2F8570980F892F83709695969523E044
:10313000CC0FDD1F2A95E1F7980F8E01092B0E9415
:10314000421700C068E0802F0E949E1780E18A9598
:10315000F1F75098589A489B1EC087E090E0489934
:103160001CC0FE01ED5FFE4F63816623F9F02091E4
:10317000AC013091AD0184819581820F931F0E9433
:103180007217811113C0509A589A7894DF91CF9199
:103190001F910F91089500C0DECF019729F4509A36
:1031A000589A789480E0F2CF00C0D9CF0E943A17A5
:1031B00080E28A95F1F75898509A80E18A95F1F764
:1031C000CD5FDE4F6881662351F02091AC013091D4
:1031D000AD0189819A81820F931F0E94BF170E94BF
:1031E0004217789481E0D2CF80916E0208950895BD
:1031F00008959B01BA01909190029430E9F48F7088
:103200008093E9009FEF8091E800915085FD06C012
:1032100085ED8A95F1F700009111F5CF8091E800D6
:1032200085FF0AC050E040E0C9010E94EC1A80917D
:10323000E8008E778093E800089543E050E0BC01F9
:1032400082E00E94F9180895CF93DF93EC0148E0E3
:1032500050E0BC0181E00E94F91888E0FE01A6E67A
:10326000B2E001900D928A95E1F7DF91CF91089538
:1032700080918F02811109C00E947C1C0E94D91C80
:103280008091E20084608093E200089510928F02A2
:1032900008950E941616089560918C0281E06111D4
:1032A00001C080E00E940D1608959091900281E087
:1032B000943009F080E060918C020E94131608950A
:1032C00042E061EC81E00E94F81B42E261EC82E0A6
:1032D0000E94F81B9091900281E0943009F080E008
:1032E00060918C020E9403160895809192028330AF
:1032F00009F461C030F48130D1F1823009F49EC00C
:1033000008958A3009F48AC08B3009F46FC089307F
:1033100009F050C080919102813209F04BC0809138
:10332000950290919602029708F044C08091E800BF
:10333000877F8093E8008091E80082FF37C09091FA
:10334000F3008091F200029731F48091F100813016
:1033500011F0863021F48091F10080936E0280910B
:10336000E8008B778093E8000E942C1C23C080919A
:103370009102813AF9F48091E800877F8093E80018
:103380008091950290919602892B61F468E086E61F
:1033900092E070E00E943B1B8091E8008B77809365
:1033A000E800089560E090E080E0F3CF8091900223
:1033B0008111C1CF089580919102813AD9F780910E
:1033C000950290919602892BA9F78091E800877F5A
:1033D0008093E8008091E80080FFFCCF8091250178
:1033E0008093F1008091E8008E77BCCF80919102AC
:1033F000813201F78091950290919602892BD1F646
:103400008091E800877F8093E8000E942C1C8091C7
:103410009302809325010E946A060895809191028B
:10342000813241F68091E800877F8093E8000E9416
:103430002C1C8091940280936F02089580919102D8
:10344000813A09F0B7CF8091E800877F8093E80048
:103450008091E80080FFFCCF80916F02C1CF84B7DC
:10346000877F84BF0FB6F894A8958091600088612B
:1034700080936000109260000FBE80E890E00FB66D
:10348000F89480936100909361000FBE0E941C1617
:1034900008950E947C1C0E94D91CE2EEF0E080811D
:1034A0008460808378940E94581F08958BE191E096
:1034B0000E942315089580919002853031F4809107
:1034C0009002853019F00E94961608950E946B169E
:1034D00080918E02882399F30E942916882379F31C
:1034E0000E94D61A0E946A06EACF08959A01409176
:1034F0009702509198020E947E1A0895492F5527ED
:103500004330510519F168F44130510509F444C0C4
:103510004230510509F445C090E080E050E040E0C1
:1035200025C04132510549F142325105A9F784E4E1
:1035300090E041EA52E061157105C1F082E390E04C
:103540004FE652E06130710589F0E6CF992781306E
:10355000910581F0009729F00297F1F6ECEEF1E089
:1035600002C0EEE1F2E0849190E0AF01F9015183F5
:1035700040830895EEEFF1E0F6CF89E090E044E378
:1035800052E06115710591F389E090E04DE452E05D
:103590006130710559F3C0CF82E190E04DE552E012
:1035A000E5CF8BE390E042E252E0E0CF80E189BDDD
:1035B00082E189BD09B400FEFDCF8091D8008F7DE6
:1035C0008093D8008091E00082608093E000809139
:1035D000E00081FDFCCF0895AF92BF92CF92DF92C1
:1035E000FF920F931F93CF93DF936C01EB018A013E
:1035F0000E944B1CF82E811123C00115110539F0D2
:10360000F80180819181C81BD90BC80ED91EB12C3D
:10361000A12C2097A9F08091E80085FD22C080911F
:10362000E8008E778093E80001151105A1F0F801FC
:1036300080819181A80EB91EB182A08285E0F82E0A
:103640008F2DDF91CF911F910F91FF90DF90CF9041
:10365000BF90AF9008950E944B1C8823D1F2F82EA2
:10366000EFCFF60181916F018093F1002197FFEF79
:10367000AF1ABF0ACECFFC018091970290919802B9
:1036800086179707A0F06115710529F49091E8005D
:103690009E779093E80090E06115710551F49111C7
:1036A00008C08091E80082FF34C080E00895BC012A
:1036B000F2CF809190028823C1F18530C1F18091D1
:1036C000E80083FD30C08091E80082FDEACF809160
:1036D000E80080FFE1CF8091F3002091F200382FC5
:1036E0006115710519F02830310558F091E0283046
:1036F000310509F090E02091E8002E772093E80052
:10370000CBCF81918093F100615071092F5F3F4FC2
:10371000E7CF80919002882341F0853041F080917D
:10372000E80083FFBECF81E0089582E0089583E042
:103730000895FC018091970290919802861797074F
:10374000A0F06115710529F48091E8008E778093CF
:10375000E80090E06115710551F4911108C0809165
:10376000E80082FF35C080E00895BC01F2CF80916F
:1037700090028823C9F18530C9F18091E80083FD6A
:1037800031C08091E80082FDEACF8091E80080FF9F
:10379000E1CF8091F3002091F200382F611571057F
:1037A00019F02830310558F091E02830310509F042
:1037B00090E08091E8008E778093E800CBCF8491F1
:1037C0008093F1003196615071092F5F3F4FE6CF32
:1037D00080919002882341F0853041F08091E8008B
:1037E00083FFBDCF81E0089582E0089583E00895CE
:1037F000982F973028F08F708093E90081E008952A
:103800009093E900242F762F50E0981731F07091B3
:10381000EC002091ED005091F00021FD02C09F5F6F
:10382000E8CF3091EB003E7F3093EB003091ED001C
:103830003D7F3093ED003091EB0031603093EB0031
:103840007093EC002093ED005093F0002091EE0077
:1038500027FDE5CF80E008958091910287FF13C096
:103860008091E80082FF06C08091E8008B7780930A
:10387000E80004C0809190028111F2CF08958091F8
:1038800090028823D9F38091E80080FFF8CF8091DF
:10389000E8008E77ECCF2091E4003091E50095E6CA
:1038A000A9012091EC00822F817020FF06C0809139
:1038B000E80080FF06C080E008952091E80022FD26
:1038C0001AC080919002882389F0853089F0809118
:1038D000EB0085FD0FC02091E4003091E500421718
:1038E0005307F9F29150E1F684E0089582E00895DB
:1038F00083E0089581E008950E94EB1C0E94F31C70
:10390000E0EEF0E0808181608083E8EDF0E080818E
:103910008F77808319BCA7EDB0E08C918E7F8C935C
:1039200080818F7E808310928F0208950F931F9362
:10393000CF93DF930E94EB1C0E94F31CC8EDD0E0F4
:1039400088818F77888388818068888388818F7D4C
:10395000888319BC1092900210928C0210928E02F1
:1039600010928D0200EE10E0F80180818B7F808341
:1039700088818160888342E060E080E00E94F81BDB
:10398000E1EEF0E080818E7F8083E2EEF0E08081E6
:1039900081608083808188608083F80180818E7F50
:1039A0008083888180618883DF91CF911F910F91FF
:1039B0000895E8EDF0E080818F7E8083E7EDF0E010
:1039C00080818160808384E082BF81E080938F0268
:1039D0000E94961C0895E8EDF0E080818E7F808340
:1039E0001092E20008951092DA001092E10008951A
:1039F0001F920F920FB60F9211242F933F934F9364
:103A00005F936F937F938F939F93AF93BF93EF9346
:103A1000FF938091E10082FF0BC08091E20082FF62
:103A200007C08091E1008B7F8093E1000E94571FC7
:103A30008091DA0080FF19C08091D80080FF15C006
:103A40008091DA008E7F8093DA008091D90080FF28
:103A500096C080E189BD82E189BD09B400FEFDCF39
:103A600081E0809390020E9438198091E10080FFEC
:103A700019C08091E20080FF15C08091E2008E7F26
:103A80008093E2008091E20080618093E200809167
:103A9000D80080628093D80019BC85E080939002A2
:103AA0000E944C198091E10084FF2BC08091E200BC
:103AB00084FF27C080E189BD82E189BD89B5982F47
:103AC000917080FFFBCF8091D8008F7D8093D800CC
:103AD0008091E1008F7E8093E1008091E2008F7EF3
:103AE0008093E2008091E20081608093E200809107
:103AF0008C02882309F449C084E0809390020E94DC
:103B000055198091E10083FF29C08091E20083FF75
:103B100025C08091E100877F8093E10082E080935F
:103B2000900210928C028091E1008E7F8093E100E0
:103B30008091E2008E7F8093E2008091E2008061BC
:103B40008093E20042E060E080E00E94F81B8091F8
:103B5000F00088608093F0000E944919FF91EF9176
:103B6000BF91AF919F918F917F916F915F914F9195
:103B70003F912F910F900FBE0F901F90189519BC79
:103B8000109290020E94461970CF8091E30087FD49
:103B900093E090939002B3CF1F920F920FB60F92C3
:103BA00011242F933F934F935F936F937F938F9342
:103BB0009F93AF93BF93CF93DF93EF93FF93D091F6
:103BC000E900DF708091EC00C82FC17080FDC0E873
:103BD0001092E9008091F000877F8093F000789444
:103BE0000E94101E1092E9008091F000886080937E
:103BF000F000CD2BCF70C093E900FF91EF91DF91E2
:103C0000CF91BF91AF919F918F917F916F915F9174
:103C10004F913F912F910F900FBE0F901F901895CD
:103C2000AAE2B0E0E6E1FEE10C949A1F81E992E09D
:103C30002091F100FC012193CF01F2E089399F0727
:103C4000B9F70E9475198091E80083FF1EC1809129
:103C50009102909192029A3008F017C1E92FF0E09A
:103C6000EF59FF4D0C94851F803899F0823809F088
:103C70000CC1809195028F70873008F006C1809347
:103C8000E9008091EB0085FB882780F91092E9001C
:103C900006C080918D0290918E0291118260909168
:103CA000E800977F9093E8008093F1001092F10074
:103CB0008091E8008E77E5C0882309F4D3C0823074
:103CC00009F0E3C0809193028111D6C080919502E2
:103CD0008F702FEF280F263008F0D7C08093E900AF
:103CE0002091EB0020FFC8C0933031F48091EB00AD
:103CF00080628093EB00C0C09091EB009061909344
:103D0000EB0021E030E001C0220F8A95EAF7209312
:103D1000EA001092EA008091EB008860EACF8111FE
:103D2000B4C0109193021F778091E3008078812BBB
:103D30008093E3008091E800877F8093E8000E94F1
:103D40002C1C8091E80080FFFCCF8091E30080680C
:103D50008093E30082E0111183E08093900295C08C
:103D60008058823008F091C0809193029091940223
:103D70008C3D23E09207A1F583E08A838AE2898360
:103D80004FB7F894DE01139620E03EE051E2E32FB6
:103D9000F0E050935700E49120FF03C0E295EF70EC
:103DA0003F5FEF708E2F90E0EA30C0F0C7968D93A2
:103DB0009D932F5F243159F74FBF8091E800877F93
:103DC0008093E8006AE270E0CE0101960E943B1BFE
:103DD0008091E8008B778093E80057C0C096E7CFCA
:103DE0006091950270919602AE014F5F5F4F0E9405
:103DF000761ABC01892B09F448C09091E800977F9E
:103E00009093E80089819A810E94991BE1CF8038C4
:103E1000E1F58091E800877F8093E80080918C0233
:103E20008093F10045CF811130C090919302923080
:103E300060F58091E800877F8093E80090938C0282
:103E40000E942C1C80918C02882311F084E005C014
:103E50008091E30087FDFACF81E0809390020E9479
:103E6000601913C080919302813079F481E093301E
:103E700009F080E080938E021092E9008091E800C2
:103E8000877F8093E8000E942C1C8091E80083FFCC
:103E90000AC08091E800877F8093E8008091EB0062
:103EA00080628093EB00AA96E3E00C94B61F08951D
:103EB000CF93809190028823A1F0C091E900CF7048
:103EC0009091EC00892F817090FD80E8C82B1092B2
:103ED000E9008091E80083FD0E94101ECF70C0931E
:103EE000E900CF9108950E947C1C109290020895E1
:103EF000E8EDF0E08081806180838AE18A95F1F7C6
:103F000000C08091D90081700895EE0FFF1F0590C9
:103F1000F491E02D09942F923F924F925F926F920D
:103F20007F928F929F92AF92BF92CF92DF92EF9249
:103F3000FF920F931F93CF93DF93CDB7DEB7CA1BCA
:103F4000DB0B0FB6F894DEBF0FBECDBF09942A88F5
:103F5000398848885F846E847D848C849B84AA849D
:103F6000B984C884DF80EE80FD800C811B81AA812A
:103F7000B981CE0FD11D0FB6F894DEBF0FBECDBFF5
:103F8000ED010895FB01DC0104C08D9101908019C1
:103F900021F441505040C8F7881B990B0895FB014C
:103FA000DC0102C001900D9241505040D8F70895B5
:103FB000F999FECF92BD81BDF89A992780B50895F1
:103FC000A8E1B0E042E050E00C941C20DC01A40F1A
:103FD000B51F4150504048F0CB01840F951F2E91E2
:103FE0000E94F71F41505040D0F70895262FF999AD
:103FF000FECF92BD81BDF89A019700B4021639F048
:104000001FBA20BD0FB6F894FA9AF99A0FBE089518
:104010000396272F0E94F71F0E94F61F252F0E944C
:10402000F71F242F0C94F71F0196272F0E94F71FCC
:104030000C94F61FDC01CB01FC01F999FECF06C000
:10404000F2BDE1BDF89A319600B40D924150504056
:10405000B8F70895F894FFCF6F046F04BF04BF044E
:1040600024059E049E049E044005B105C005C005BC
:10407000F7136B14FF13C913CD130314D1130714D3
:104080001314DD136414E1131714E5131B14431404
:10409000E9131F144A14EF1325142D14D5130B1410
:1040A000D9130F14F3132914391453146214C313BE
:1040B000FB137214FC140215EB14F61408150E15FC
:1040C0001415341E5C1E451F5C1E451F8F1EB01E3E
:0640D000451F071F131F2E
:1040D6001A020100000001000000000000000401B7
:1040E6000000000405000000000000F4182419F880
:1040F60018F7181D1901E200E900EA00B500B6003C
:10410600B700CD008301CC008A01920194012102FF
:10411600230224022502260227022A02B300B40043
:104126006F0070009F01CB019F02A002818283E293
:1041360000E900EA00B500B600B700CD008301CC67
:10414600008A0192019401210223022402250226FB
:104156000227022A02B300B4006F0070009F01CB51
:10416600019F02A002818283F1C6303233F5F0311D
:0E4176003792F6F7679593356636FFFF4002E5
:00000001FF
