:100000000C949B010C9411180C94D3010C94D30103
:100010000C94D3010C94D3010C94D3010C94D30110
:100020000C94D3010C94D3010C94311D0C94051E37
:100030000C947D160C94D3010C94D3010C94D30131
:100040000C94D3010C94D3010C94D3010C94D301E0
:100050000C94D3010C9420170C94D3010C94D3016D
:100060000C94D3010C94D3010C94D3010C94D301C0
:100070000C94D3010C94D3010C94D3010C94D301B0
:100080000C94D3010C94D3010C94D3010C94D301A0
:100090000C94D3010C94D3010C94D3010C94D30190
:1000A0000C94D3010C94D3010C94D30114000700D9
:1000B00015001A000500040016220B0017000A00A4
:1000C0001D001B001000060019002A2821522C00D8
:1000D000000000000D0009001800130084521C00ED
:1000E0001100080012320C000E000F00360037001D
:1000F00038002921225228240000000029002A006B
:10010000280050044F042B00E100E300E200E0006F
:100110000100680069006A006B0001000100010035
:100120000000000001002400250026002700330005
:10013000210022002322280031001E001F00200081
:10014000E5002C0023520100000000001E022602E0
:1001500027021F0220022402E1002D002E002502AA
:1001600023022F0030002F0230022A2823522C00B5
:100170000000000035003502310231002D02500030
:10018000510052004F002202340034023300330287
:10019000E500292101002824000000001E001F00A6
:1001A000200021002200007CE100E300E200E000EA
:1001B0000100680069006A006B002A2801002C0019
:1001C0000000000023002400250026002700500026
:1001D000510052004F0028009100900065006F0010
:1001E000E500292101002824000000003A003B001E
:1001F0003C003D003E002B00E100E300E200E00097
:100200000000680069006A006B0001000100010045
:10021000000000003F004000410042000100AC002F
:100220007C007D00E5007B00AB00430044004500FE
:1002300000000100010001000000000010034D005B
:1002400069006E00690041007800650000001E032F
:1002500045004E0044004F0020004B006100740038
:10026000730075006800690072006F0000000403ED
:10027000090409023B00020100A0FA090400000180
:100280000301010009211101000122440007058139
:100290000308000109040100010300000009211105
:1002A0000100012232000705820320000112010033
:1002B0000200000008EDFE393901000102000105CD
:1002C000010980A101850319012AB700150126B78C
:1002D00000950175108100C0050C0901A10185047C
:1002E00019012AA002150126A002950175108100AE
:1002F000C005010906A101050719E029E715002538
:10030000019508750181029501750881010507199C
:100310000029FF150026FF009506750881000508D5
:100320001901290515002501950575019102950111
:1003300075039101C00011241FBECFEFDAE0DEBFCC
:10034000CDBF04B603FE18C08091990290919A0225
:10035000A0919B02B0919C028730904BA740B04B7C
:1003600059F41092990210929A0210929B021092E4
:100370009C02E0E0F8E3099511E0A0E0B1E0E8E4D8
:10038000F1E402C005900D92AE3AB107D9F722E030
:10039000AEEAB1E001C01D92A939B207E1F70E94AF
:1003A00084130C9463200C9400008530B8F46830FA
:1003B000A8F4453098F450E095E0699F400D511D38
:1003C0001124FA0198E2899FE00DF11D1124EE0F2E
:1003D000FF1FE455FF4F85919491089581E090E0CF
:1003E00008950E94D501089581E008950E94F401C6
:1003F000089581E008950E94F40108950E94FB0190
:10040000089508950E9401020895A6E0B0E0EBE08F
:10041000F2E00C94D31F49835A839E833091B50137
:1004200089819A8131111AC03E81332399F02223A8
:1004300089F00E94E407182F682F89819A810E9411
:10044000C00769817A81812F0E94A60E2696E3E07B
:100450000C94EF1F0E94D207182FF3CF0E94E407DD
:1004600069817A81F1CFFC01262F4081518162811F
:100470007381848195810E9405020895CF93DF9353
:10048000EC0161E00E943302BE010E94F601DF919F
:10049000CF910895CF93DF93EC0160E00E94330287
:1004A000BE010E940202DF91CF91089581E008957C
:1004B0000E9456020895CF93C82F0E9495068C2F54
:1004C0000E9458022FEF84E39CE02150804090402E
:1004D000E1F700C00000CF91089581E00E945B0227
:1004E0000E944417089580E00E945B020E946817F2
:1004F00008950F931F93CF93DF938C0161E00E94C7
:100500003302EC01B8010E94FE01811106C080E0B7
:10051000DF91CF911F910F910895B801CE010E94F4
:1005200018158823A1F3B801CE010E94D81388239F
:1005300071F3B801CE010E94AE13882341F3F80194
:100540008581882361F0C330FCE7DF07E9F058F4C8
:10055000C115ECE7DE07A9F0C130DC47B9F0C801EE
:100560000E94F901D5CFCB358CE7D807A9F0CC355F
:10057000ECE7DE0771F0CA35DC4789F70E94FB0B18
:10058000EECF0E946D02C3CF0E94030C0E94730243
:10059000BECF0E94F10BE3CF0E94FF0BE0CF0E9481
:1005A0005A160E94F60208950E94FA020E945F16EF
:1005B0000895089581E008950895CF93DF93D82F8B
:1005C0000E94DA02C82F882319F08D2F0E94DC02C6
:1005D0008C2FDF91CF9108950895CF93C82F0E945B
:1005E000D9028C2F0E94DD02CF91089580E00E94F5
:1005F000ED0208950E9461150E94ED020895CF93C7
:100600000E946115C82F8091B0018C1779F0C093BA
:10061000B0010E94E9166093B1017093B20180931A
:10062000B3019093B4018C2F0E94ED02CF910895F5
:10063000ADE0B0E0EEE1F3E00C94D41F48875987B9
:100640006A877B878C879D8791110E94310B1F825F
:1006500086E0FE013896DE01119601900D928A9592
:10066000E1F78D8181110DC029813A814B815C8137
:100670006D817E818F810E947B0A2D96E2E00C9431
:10068000F01FCE0101960E943E028111EDCFF5CF01
:10069000FC012481213021F4808191810E9416087F
:1006A0000895CF93C82F8823C9F08238C9F40E94D7
:1006B000751581FD13C089E30E941D160E94A00BD1
:1006C0002FEF87EE93E0215080409040E1F700C08B
:1006D000000089E30E9425160E94A00BCF91089587
:1006E0008338A1F40E94751580FDF8CF83E50E9440
:1006F0001D160E94A00B2FEF81EE94E02150804048
:100700009040E1F700C0000083E5E4CF8438A1F415
:100710000E94751582FDE2CF87E40E941D160E949B
:10072000A00B2FEF81EE94E0215080409040E1F744
:1007300000C0000087E4CECF8CEF8C0F813A70F4BC
:100740008C2F0E94E215882329F08C2F0E942516F9
:100750000E94A00B8C2F0E941D16BECF80E28C0F32
:10076000883048F4C77081E001C0880FCA95EAF765
:100770000E94140BB1CFEBE5EC0FE33040F4F0E056
:10078000E45AFE4F808190E00E948315A7CFC85A9B
:10079000CB3108F0A3CFEC2FF0E0EE0FFF1FEA5DA6
:1007A000FE4F808191810E94A81598CF882309F47B
:1007B0004DC0823879F40E94751581FF47C089E3E6
:1007C0000E941D160E94A00B89E30E9425160E941C
:1007D000A00B0895833859F40E94751580FF36C028
:1007E00083E50E941D160E94A00B83E5EECF84389E
:1007F00059F40E94751582FF29C087E40E941D16D6
:100800000E94A00B87E4E1CF9CEF980F913AE8F2A9
:1008100090E2980F983050F4877091E001C0990FE2
:100820008A95EAF7892F0E941A0BD1CF9BE5980F82
:10083000933028F490E080E00E9483150895885A50
:100840008B3120F490E080E00E94A81508951F935A
:10085000CF93DF93182FEB010E945103209739F4B7
:10086000812F0E94D603DF91CF911F9108958FE9C8
:100870009FE00197F1F700C000002197EFCF70E0F3
:1008800060E0893311F460E570E00E942704089568
:10089000882321F00E94140B0E94A00B0895882346
:1008A00021F00E941A0B0E94A00B0895B0E0A0E076
:1008B000ECE5F4E00C94CD1F6C01D62FC72FFC01A2
:1008C0001581068102950F700E940A0BE82E88237D
:1008D000F9F0E12E1123E1F08C2F807F803461F05C
:1008E00080E28D0F883008F18C2F807E803221F4D9
:1008F000D230D8F00023C9F08091750282FF15C074
:1009000082E00E94C50B0E940A0B91E0E82EE926C6
:10091000BC2EB2949FE0B922FBE0FB15B8F1EB2DA1
:10092000F0E0EB59FF4D0C94BE1FE12CF1CF0C2FE2
:100930000F70C07F11F00295007F112399F0002302
:1009400059F080E28D0F883010F0D11107C0802F50
:100950000E94140B0E94A00B8D2F5AC0802F0E9462
:10096000240BF8CF8D2F0E94D603002379F080E26C
:100970008D0F883010F0D11104C0802F0E941A0B07
:1009800003C0802F0E942A0B0E94A00BEB2DE85081
:10099000FF0B349720F40E9461150E94ED02EE20B7
:1009A00089F00E94060B80FD0DC0F60115820E94A1
:1009B000000B0E941E07C6010E9460060E94000BE9
:1009C0000E942E07CDB7DEB7E9E00C94E91F2C2F6B
:1009D0002F70F22EC07FC03219F0F29480EFF8220F
:1009E000DD2341F0D130D1F1112309F444C00023BB
:1009F000F1F0B2CF8091750282FD15C0112359F03C
:100A0000FF2029F08F2D0E94140B0E94A00B80E084
:100A10000E945103BBCF80E00E94D603FF2009F45F
:100A2000B5CF8F2DABCF112369F0011104C08F2DED
:100A30000E944804ABCF013009F0A8CF8F2D0E944F
:100A4000480BA4CF0111A2CF8F2D0E944F048F2DF0
:100A50000E94540B8F2D0E94380B98CF112321F048
:100A6000063008F093CFE3CF053008F08FCF8F2DFD
:100A70000E944F048BCF0023D1F3D93349F43FEFC9
:100A800087EE93E0315080409040E1F700C00000D5
:100A90008D2F0E94D6037ACF8C2F869586958370F2
:100AA00069F0813009F072CF8D2F9C2F9370111156
:100AB00002C080E090E00E94A81568CF8D2F9C2F87
:100AC0009370111102C080E090E00E9483155ECF08
:100AD0008C2F8370A1F5111159CF4D2F429546955A
:100AE0004770440F440F2D2F2F7030E0042E02C0AA
:100AF000220F331F0A94E2F790E080E0D4FF09C090
:100B00008FE090E002C0880F991F4A95E2F7809528
:100B10009095C695C695C370822B932BC23049F031
:100B200058F4C13019F00E94EE0630CF0E94E5065D
:100B30002DCF0E94F7062ACF0E94E20627CF869586
:100B4000112311F08C2F8170882309F41FCF4D2FB2
:100B5000429546954770440F440F2D2F2F7030E07B
:100B6000042E02C0220F331F0A94E2F790E080E0C7
:100B7000D4FF09C08FE090E002C0880F991F4A950A
:100B8000E2F780959095C695C695C370822B932BFE
:100B9000C23049F058F4C13019F00E945907F6CE1E
:100BA0000E945007F3CE0E946207F0CE0E94060713
:100BB000EDCECF70112329F08C2F0E941E078D2FB0
:100BC00037CF8D2F0E944F048C2F0E942E07DECE30
:100BD000D23F41F160F4D03FB9F0D13F81F0112311
:100BE00009F446C00111B8CE8C2F8F711FC0D33FBE
:100BF00001F1D43FA1F78091750282FD24C08C2FB2
:100C00008F71112311F312C0112341F0053008F048
:100C1000BDCE8C2F8F710E944007B8CE063008F0F1
:100C2000B5CEF7CF8C2F8F711111CFCF0E941E0739
:100C3000ADCE112329F08C2F8F710E941207A6CE02
:100C40000E940D07A3CE112349F0CF718C2F0E9473
:100C50001E0763E08C2F0E94A70B98CE81E00E94B4
:100C6000C50B023008F492CE82E00E94C50B8ECEF6
:100C7000002359F0D93309F00BCFEFEFF7EE23E063
:100C8000E150F0402040E1F701CF8C2F8F719DCFD4
:100C90000F931F93CF93DF93EC01688179818D814E
:100CA0000E9421088C010E946B070E94E106B80196
:100CB000CE010E945604DF91CF911F910F910895AC
:100CC000CF93DF93EC018C81882399F0CE010E94B1
:100CD0007902811111C00E940A0B882351F08D8185
:100CE000882339F08091750282FF03C082E00E9460
:100CF000C50BDF91CF910895CE010E944806CE0129
:100D00000E944A02F6CF90E080E00E94831590E0B6
:100D100080E00E94A8150E94310B0E94A00B08954C
:100D20000E942D160E94830608950E94210B0E94A6
:100D30009006089592959F70963091F058F4925FC6
:100D40009F70923058F4803F19F030F4883E30F4B0
:100D500081E008959A5FF4CF843FD1F380E0089555
:100D6000883EB0F3813FD1F7F3CFFC0124812223E9
:100D700039F0808191810E9416080E949A06089598
:100D800080E00895A6E0B0E0E8ECF6E00C94D41F13
:100D90002696E2E00C94F01FA7E0B0E0E2EDF6E06A
:100DA0000C94D41F2796E2E00C94F01F08950E9443
:100DB000D60608950E94D7069093CD018093CC016A
:100DC000089508950E94DA0608952091CC0130918B
:100DD000CD01822B932B0E94DA0608952091CC013D
:100DE0003091CD01822393230E94DA060895209149
:100DF000CC013091CD01822793270E94DA06089515
:100E00000E94D60608950E94000708950E940307D5
:100E10009093CB018093CA01089590E080E00E94F6
:100E20000607089521E030E0A90102C0440F551FD4
:100E30008A95E2F7CA010E940607089521E030E092
:100E400002C0220F331F8A95E2F78091CA01909168
:100E5000CB01822B932B0E940607089521E030E0FE
:100E600002C0220F331F8A95E2F7209530958091BA
:100E7000CA019091CB01822393230E940607089513
:100E800021E030E002C0220F331F8A95E2F7809103
:100E9000CA019091CB01822793270E9406070895EB
:100EA0002091CA013091CB01822B932B0E9406071F
:100EB00008952091CA013091CB01822393230E948F
:100EC000060708952091CA013091CB01822793270C
:100ED0000E94060708950895262F277091E001C00B
:100EE000990F2A95EAF723E0769567952A95E1F719
:100EF000660F771F660F771FFA01E60FF71F50E0A6
:100F000040E0682F70E08191DF0111979B01042E72
:100F100002C0369527950A94E2F72170219528277B
:100F2000292328272C934F5F5F4F4430510559F7F1
:100F30000895A82FA77023E0969587952A95E1F745
:100F4000880F991F880F991FFB01E80FF91F50E0C8
:100F500040E080E0219130E00A2E02C036952795CE
:100F60000A94E2F721703327042E01C0220F0A945D
:100F7000EAF7822B4F5F5F4F4430510559F70895D0
:100F8000262F983070F4853060F4682F70E085E08B
:100F9000989F600D711D112446EB51E0822F0E9435
:100FA0006C070895292F983068F4853058F490E044
:100FB00066EB71E035E0239F800D911D11240E94A6
:100FC0009907089580E00895B0E0A0E0EAEEF7E028
:100FD0000C94CD1F7C010091CA011091CB0180912E
:100FE000CC019091CD01082B192BCFE0D0E0CC247F
:100FF000C394D12CBC2EC6010C2E02C0880F991FA1
:101000000A94E2F780239123892B49F4219790F7E2
:10101000B12C8B2DCDB7DEB7E9E00C94E91FB701F9
:101020008C2F0E94B20E019789F3F3CFCF93DF93F9
:10103000EC010E94E407BE010E94B20EDF91CF9145
:1010400008951F93CF93DF93EB019091B5019923FE
:1010500039F0CB010E941608DF91CF911F910895BE
:10106000882369F0CB010E94E407182F682FCE0176
:101070000E94C007BE01812F0E94B20EEDCFCB01AE
:101080000E94D207182FF6CF1F93CF93DF93C09102
:10109000CE0117E08091CF018C1304C0DF91CF9176
:1010A0001F910895D0E01C9FF0011D9FF00D1124A9
:1010B000E053FE4F208131814281538164817581EB
:1010C00086810E94CC062196C770E4CF2091080249
:1010D0003091090240910A0250910B0260910C027A
:1010E00070910D0280910E020E94CC060895CF935C
:1010F000DF9380910E02807F09F04DC080910D0238
:10110000882309F448C0E091CE015091CF01C091ED
:101110000902D091080260910A0270910B0247E027
:101120005E17C9F18E2F90E0E49FF0011124E05387
:10113000FE4F2481222391F1489FF001499FF00D39
:101140001124DF01A053BE4F11962C9111972C133F
:1011500025C02C912D1322C015962C911597211185
:101160001DC012962D913C91261B370B283C310552
:10117000A8F480910E028F70806180930E02EA5273
:10118000FE4F80818F708061808388E092E00E94B2
:1011900060060E944408DF91CF910895FC013196CA
:1011A000E770BECF482F2091CE019091CF0157E03C
:1011B000291302C080E0089530E0529FF001539F50
:1011C000F00D1124E053FE4F8181681306C0808129
:1011D000481303C085818111EECF2F5F3F4F2770E9
:1011E000E7CFA4E1B0E0E7EFF8E00C94CA1F8C0170
:1011F00086E0F801DE011F9601900D928A95E1F7D5
:10120000F8018481E58098E0A92E92E0B92E9091B2
:101210000C0291111FC08823D1F0EE20A9F0C80163
:101220000E94B506F82E882379F087E0F801D501F1
:1012300001900D928A95E1F7C5010E9448030E9432
:1012400077080E9466085FC0C8010E946006FF24FC
:10125000F39459C0C080D18082809380F0900D02B9
:1012600020910A0230910B02A401421B530BFF2074
:1012700009F4F9C0483C510508F0A7C0882309F4D7
:1012800042C09091090280910E02282F207F09F020
:101290005CC09D1116C090910802C91212C0E110E5
:1012A0004EC08F70806180930E020E94660888E0B5
:1012B00092E00E94600680910E02F8018683F12C74
:1012C00022C0E1103CC06D2D8C2D0E94D2086D2DE6
:1012D0008C2D0E94D208E82E8111F1CFCF86D88ABA
:1012E0008F8598890E941608292F22952F70243007
:1012F00078F49F702230A8F09923B9F0F801968114
:10130000907F99F4FE2C8F2D6496ECE00C94E61FF0
:101310002A5F2F70223068F0C8010E946006EF2C0F
:10132000F1CF992311F0882369F3805E883050F360
:10133000F3CF803F38F3815F833070F7E3CF809144
:101340000E02816080930E02BACF9D1113C090915E
:101350000802C9120FC0E1100DC08683C8010E94A7
:10136000600687E0F801A8E0B2E001900D928A954E
:10137000E1F767CFC8010E94B506882309F464CF5E
:10138000EE2009F461CF80910E02803288F0209126
:10139000080230910902398728879B868A869091B6
:1013A0000C029C871D868E87CE0108960E946006DF
:1013B00087E0F801A8E0B2E001900D928A95E1F78C
:1013C0000E9477080E94660842CF90910E02292F52
:1013D000207FA1F4682D9A8A898AA6017A899E2D98
:1013E0000E94C20688E092E00E94600687E0F50154
:1013F00011928A95E9F70E94660861CF882309F463
:1014000082CF809109028D1110C080910802C8120C
:101410000CC0E1100AC09683C8010E94600687E0F4
:10142000F50111928A95E9F76ECFC8010E94B506C1
:10143000882309F409CFEE2009F406CF80910E022B
:10144000803208F4B5CF20910802309109023A8326
:1014500029839C828B8290910C029D831E828F83B4
:10146000CE010196A3CF483C5105B8F5882309F475
:10147000EECEFE2CEE2009F4E7CE809109028D110C
:101480001EC080910802C8121AC080910E0280FD11
:101490000DC0982F907F51F08683903F09F45ECF66
:1014A000982F907F905F8F70892B57CF87E0F8013E
:1014B000A8E0B2E001900D928A95E1F724CFC8012F
:1014C0000E94B506811174CF80910E0281608093D5
:1014D0000E02C8010E94600616CF682D9A8A898A7A
:1014E000A6017A899E2D0E94C20687E0F50111921D
:1014F0008A95E9F7A6CEAEE0B0E0E1E8FAE00C9418
:10150000D31F288739874A875B876C877D878E87BB
:10151000CE0108960E94F1088823B1F06C856623FD
:1015200041F0288539854A855B857D858E850E94B9
:10153000CC0617E08091CE019091CF0189133DC078
:101540002E96E3E00C94EF1F87E0FE013896DE0153
:10155000119601900D928A95E1F78C85882349F3C5
:101560002091CF0130E0C901019687709927409101
:10157000CE014817190699F097E0929FD001939FEA
:10158000B00D1124A053BE4FFE01319601900D9273
:101590009A95E1F78093CF010E944408CACF0E9438
:1015A00095061092CF011092CE0187E0E8E0F2E0BC
:1015B000DF011D928A95E9F7BCCF819FC0011124FC
:1015C00080539E4F0E94F108882309F4B9CFE0911F
:1015D000CE011E9FF0011124E053FE4F2081318186
:1015E000428153816481758186810E94CC068091FD
:1015F000CE0190E00196877099278093CE019ACF13
:101600008091170286958695869508958091170298
:101610008770089590911702977081E009F480E037
:10162000089580912302089590912302892B80933D
:10163000230208958095909123029823909323028A
:10164000089510922302089590912202892B80938D
:10165000220208958095909122029823909322026D
:10166000089510922202089508950E94340B08955F
:1016700090911802292F282331F080958923809397
:1016800018020E94350B089508950E94440B089596
:1016900090911902292F2823281729F0982B90932D
:1016A00019020E94450B089590911902292F2823B1
:1016B00031F080958923809319020E94450B08958B
:1016C00080911902882329F01092190280E00E946B
:1016D000450B08950F931F93CF93DF930091000163
:1016E00010910101C091230280912202C82B8091A8
:1016F0001902882331F0C82B0E94CD1581110E9458
:10170000600BF801C083C0910001D091010148E055
:1017100050E06FE072E0CE010E94FB1F892B59F070
:1017200088E0FE01AFE0B2E001900D928A95E1F70A
:10173000CE010E947815DF91CF911F910F910895EE
:101740000E946A0B089508950E94A30B089590913A
:10175000750292FF11C098E0899F90011124622BBD
:10176000609317020E941E07809117028695869546
:1017700086950E94A40B08950E941E07089510925A
:10178000170280E00E94A40B0895909117028095A3
:10179000892380931702282F277069F4891759F03D
:1017A0009091750292FF07C08695869586950E9456
:1017B0002E070E94BF0B08959091750292FB22277D
:1017C00020F9281769F080FB92F9909375028091B7
:1017D0007402909175020E94240C82E00E94C50B55
:1017E00008958091750282FB882780F991E089270E
:1017F0000E94DC0B089581E00E94DC0B089580E0DC
:101800000E94DC0B08956FEF7FEF90E080E00E9474
:101810004D20089590E080E00E94192021E0863E4E
:101820009E4F09F020E0822F089582E090E00E9410
:101830001120089583E090E00E941120089584E033
:1018400090E00E9419200895BC0184E090E00E947D
:101850004D200895AB01BC018FE090E00E94412033
:101860000895AB01BC0183E190E00E9441200895FE
:1018700060E070E0CB010E94310C089560E070E000
:10188000CB010E942A0C0E94380C0895A8E0B0E019
:10189000ECE4FCE00C94D41F66EE7EEF90E080E078
:1018A0000E944D2060E082E090E00E942F2081E0C5
:1018B00090E09093CD018093CC0161E083E090E0D3
:1018C0000E942F2060E074E184E090E00E944D20AF
:1018D00060E086E090E00E942F206FEF87E090E0CC
:1018E0000E942F2040E050E0BA0188E090E00E9482
:1018F000412060E084E290E00E942F2060E087E1D8
:1019000090E00E942F2060E08CE090E00E942F2069
:1019100060E08DE090E00E942F2019821A821B82E5
:101920001C821D821E821F82188648E050E068E1FA
:1019300070E0CE0101960E941F2040E050E0BA0105
:1019400080E290E00E9441200E943E0C2896E2E056
:101950000C94F01F0E94460C0895682F8EE090E0D2
:101960000E942F200895A6E0B0E0E9EBFCE00C9483
:10197000D21F0E94DD168C018091240290912502D5
:101980008017910781F019821A820E94DD16682F54
:1019900049815A81792F80E090E00E9418031093CA
:1019A0002502009324022696E4E00C94EE1F0E9488
:1019B000CE0F60933202709333028093340290937F
:1019C000350260932E0270932F0280933002909321
:1019D00031020895089508950E94EA0C089508952B
:1019E0000E94EF0C089581E0089588EE9FE00E9428
:1019F00091130E94EB0C0E94EC0C08950E9485113B
:101A00000895089508950E94010D0E94020D089501
:101A10000E94EB0F0E94EC0208950E94D4160E94CF
:101A2000A80F0E948B110E94DC100E94080D0E94DA
:101A300096130E949D110E94F00C0895A6E0B0E05C
:101A4000E4E2FDE00C94CB1F0E94F30C81110AC06C
:101A50000E94B30C0E9485110E94FF022696EBE0C3
:101A60000C94E71F0E94FF1086E2A82E82E0B82E99
:101A7000750110E0F70101917F01812F0E94111083
:101A80001F5F183009F441C00817A1F38091360296
:101A900081FD0E9417100E94FE0CC82E10E09924B0
:101AA0009394812F0E941110082FF50181915F01FD
:101AB000081729F1F12CEE24E394D02ED8268D2D91
:101AC0008E21A9F0CC2099F0F9821A830E94DD16AC
:101AD0009C838B839D8291E0802F8E2109F490E07E
:101AE00049815A816B817C818D810E941803F39416
:101AF000EE0CF5E0FF12E3CFF501319700831F5F95
:101B0000183079F60E94D70CA5CF0813BFCFA0CF0D
:101B10001F93CF93DF930E94B70EEC01C11580E5B0
:101B2000D807F0F5C11580E4D80708F09CC0C03E86
:101B3000D10520F5CD3CD10508F082C0C83AD105C9
:101B400078F4C53AD10508F073C0C130D10519F158
:101B5000209709F1C430D105F0F4D0E0C0E01BC0FB
:101B6000C33CD105D0F7C85AD0E0CC0FDD1FC15A15
:101B7000DE4F0990D881C02DD4640DC0C11580E21C
:101B8000D80708F0D1C0C11581E0D80708F05AC0C5
:101B9000C83ED10510F7CE01DF91CF911F91089576
:101BA000C03682E5D80718F5C03482E5D80708F0BA
:101BB0006BC0C03282E5D80708F05FC0C11582E56E
:101BC000D80708F497C02C2F2695269580E2289FE9
:101BD000900111248C2F8370C1E0D0E002C0CC0FA3
:101BE000DD1F8A95E2F7C22BD32BDD68D4CFC03A34
:101BF00082E5D80760F4C03882E5D80708F459C0F8
:101C0000CF71D0E0DC2FCC27C46FD06AC4CFC03CEA
:101C100082E5D80708F462C0C03E82E5D80708F024
:101C20009CCFDC2FCC27CC27DF71C06FD06AB3CF1D
:101C3000C55AD0E0CB56DE4FC881D0E0D064ABCFE0
:101C4000D065A9CF8D2F0E94590F182FCE0199274B
:101C50000E94B70EC12FD0E0DC2FCC27CC27DF713C
:101C6000C82BD92B98CFCE0199270E94B70ECC272D
:101C7000DF70C82BD92BD06A8ECFCF71D0E0DC2F8C
:101C8000CC27C16FD06A87CF2C2F26952695277039
:101C900080E2289F900111248C2F8370C1E0D0E056
:101CA00002C0CC0FDD1F8A95E2F7C22BD32BDC6874
:101CB00072CF2C2F26952695277080E2289F9001C1
:101CC00011248C2F8370C1E0D0E002C0CC0FDD1F47
:101CD0008A95E2F7C22BD32BDA685DCF8C2F8F71F8
:101CE0000E94590FC82FD0E0DC2FCC27CC27DF7102
:101CF000D06251CF8C2F8F710E94590F55E0D6952D
:101D0000C7955A95E1F7CF70D0E0DC2FCC27282F6C
:101D100030E084FF05C044E0220F331F4A95E1F70D
:101D2000C22BD32BD06937CF8D2F8F710E94590FC3
:101D3000182FCE0199270E94B70EC12FD0E0DC2FBB
:101D4000CC27CC27DF71C82BD92BD2CF462F7830A8
:101D500030F4653020F4672F0E94F101089590E07F
:101D600080E008950E94A60E0E94880D0895823892
:101D70009105B9F1B0F48133910509F47DC048F4BF
:101D80008932910509F46DC08A32910509F47BC04E
:101D900008958533910509F45FC08933910509F1F0
:101DA0000895833E9105D9F138F4803E910529F1DB
:101DB000823E910579F10895863E9105D9F1873EDD
:101DC000910509F43EC0843E910541F520917502CC
:101DD00021FF24C08091740284FD19C087EE90E039
:101DE000089520917402237009F05AC02091750261
:101DF00023FF14C089E290E008952091740220FD31
:101E000038C03091750230FF09C024FF43C090E014
:101E100080E008952091740222FDF7CF089520916B
:101E2000740222FD3AC03091750230FD39C024FFA2
:101E3000F5CFEDCF2091740223FFF0CF24FDE7CF43
:101E4000CDCF2091740223FD2EC03091750231FF59
:101E5000EECF84EE90E008952091740225FFDECF4E
:101E6000C9CF2091740225FD21C02091750223FF66
:101E7000D5CF89E390E0D2CF2091740226FFCECF58
:101E80008AE290E008952091740226FFC7CF81E393
:101E900090E0089583EE90E0089582EE90E008953A
:101EA00080EE90E0089586EE90E0089585E390E05E
:101EB00008959091740292FF10C041E0282F247180
:101EC000243009F040E031E0282F2871283009F053
:101ED00030E0431711F02CE0822793FF10C041E05F
:101EE000282F2471243109F040E031E0282F287197
:101EF000283109F030E0431711F02CE082273091AF
:101F0000750230FF10C051E0282F2171213009F0F7
:101F100050E041E0282F2871283009F040E05417A4
:101F200011F029E0822731FF10C041E0282F2171F4
:101F3000213109F040E031E0282F2871283109F0E3
:101F400030E0431711F029E0822794FD877E089541
:101F5000109270021092710210927202109273022B
:101F60000895CF92DF92EF92FF926B017C010E9465
:101F7000851181110EC00E94E916C61AD70AE80A17
:101F8000F90AC0927002D0927102E0927202F0924D
:101F90007302FF90EF90DF90CF9008950F931F93FF
:101FA0000E948511882329F00E94E9161F910F9144
:101FB00008950E94E916009170021091710220911B
:101FC000720230917302600F711F821F931FEECF58
:101FD00080E0089508950E940A0C811102C00E94B9
:101FE000AA0C0E94150C809336020E941F0C90933D
:101FF0007502809374020E94EA0F0E941A0C90E00E
:102000000E94E2068091CA019091CB010E940307D1
:10201000089508950E940910089508950E940D10D2
:102020000895E82FF0E0E158FD4F8081089508956C
:1020300008950E9418100895EF92FF921F93CF9376
:10204000DF9300D000D0CDB7DEB70E948511182FE6
:1020500060918702882309F447C019821A821B8283
:102060001C82862F90E09E012F5F3F4F7901B901BE
:1020700081589D4F0E94AB118823E9F08091760230
:1020800090E044E050E0B70181589D4F0E94FB1F53
:1020900021E020933702892BC9F410E00E940E1032
:1020A000812F0F900F900F900F90DF91CF911F9184
:1020B000FF90EF90089580913702882371F384E0B8
:1020C000F70111928A95E9F710923702E0917602B2
:1020D000F0E0E158FD4F89819A81AB81BC8180831A
:1020E0009183A283B383DACF70E061587D4F8091F2
:1020F000760290E081589D4F0E9432120E94191082
:10210000CFCF1F93CF93DF9328E931E0C1E0D0E038
:10211000D90150E040E08D918F3F91F0E82FE2959A
:10212000EF70F0E011A18F70BE0101C0660F8A95BB
:10213000EAF7962F9095912391A382A1862B82A3F3
:102140004F5F5F4F4530510531F72B5F3F4F81E0C7
:102150002C3A3807E9F6DF91CF911F910895CF937C
:10216000DF93AC01A62FB0E085E0689FF001112459
:10217000E856FE4F70E081E060E091919F3FD1F022
:10218000C92FC295CF70D0E028A130E09F7002C067
:10219000359527959A95E2F720FD0CC0282F622BE4
:1021A0007F5F880F753049F7A40FB51F6C93DF91DF
:1021B000CF91089520E0F3CF809102018091020138
:1021C00094E0811190E09093870284E0891B8093D2
:1021D00076020E94811088E0EFE7F2E0DF01982F9D
:1021E0001D929A95E9F7E7E7F2E0DF011D928A95E3
:1021F000E9F784E00E943D110E940A100895A8E0CA
:10220000B0E0E5E0F1E10C94D11F8E010F5F1F4FAC
:1022100088E0F80111928A95E9F7F12C6F2DC80139
:102220000E94AF10F394F4E0FF12F8CF48E050E0C2
:10223000B80187E792E00E94FB1F21E0009709F4B4
:1022400020E0892B41F088E0F801A7E7B2E0019097
:102250000D928A95E1F76091870270E061587D4F99
:1022600044E087E792E00E943E11182F0E941C1064
:10227000812B2896E5E00C94ED1F0895B0E0A0E0D6
:10228000E4E4F1E10C94CE1F6C017B01042FC22F1A
:10229000222379F081E080933A020E94DD16909328
:1022A00039028093380280E0CDB7DEB7E8E00C94C5
:1022B000EA1FD0913A02DD23B1F380913802909168
:1022C00039020E94F516059770F310E0A801B601D7
:1022D000C7010E94FB1F892B31F0A801B601C7017D
:1022E0000E940820CD2F10923A028C2FDDCFCF9381
:1022F0000E94B11FC82F811102C00E94AC1F8C2FF9
:10230000CF91089580913E02089580913D020895F5
:102310000E94851108950E94771180933D020E94CA
:10232000881180933E020E948211809302010E94D4
:10233000851181110E94E11108950E94851181117A
:1023400002C00E94E411089581E090913F029A300A
:1023500008F080E008950F931F93CF93DF93EC0173
:102360008B0180913F028A30B8F4B801CE010E94FF
:102370002F12C82F811122C080913F028F3FB9F4E4
:102380000E94DD1690933C0280933B028C2FDF91DC
:10239000CF911F910F91089580913B0290913C0243
:1023A0000E94F516843F914000F7C0E0EFCF8F5FA9
:1023B00080933F028A3020F7C1E0E8CF10923F02BD
:1023C000E5CF0E94CB1708950E94CE170895B0E084
:1023D000A0E0EDEEF1E10C94CF1F7901C82F880F3A
:1023E000DD0B41155105A9F0FE0193E0EE0FFF1F33
:1023F0009A95E1F7ED5FFE4F81819281805C9D4F60
:10240000208130E04217530708F49A01A9010E9485
:102410000820CE010E94B718D82E8823D1F00115CC
:102420001105B9F083E0CC0FDD1F8A95E1F7FE01BD
:10243000ED5FFE4F438150E00417150708F4A80133
:10244000CD5FDE4F6C817D81605C7D4FC7010E9456
:1024500008208D2DCDB7DEB7E7E00C94EB1F0E946E
:10246000291308950E9440130895A4E0B0E0EBE31F
:10247000F2E10C94D21F6091550270915602809146
:102480005702909158020E94041711E064367105BA
:102490008105910518F10E94CE0F6E5F7F4F8F4F1F
:1024A0009F4F69837A838B839C8310E000E030E048
:1024B00020E044E050E0BE016F5F7F4F82E00E9469
:1024C000E711182F882351F00E94E91660935502F6
:1024D000709356028093570290935802812F24964E
:1024E000E4E00C94EE1FB0E0A0E0E9E7F2E10C9428
:1024F000CC1F7C015B016A010E94A41101E010E085
:10250000882311F00AE010E0C1E0D0E0B501C70176
:10251000F6010995811104C021960C171D072CF4B2
:10252000CDB7DEB7EAE00C94E81FCC9F9001CD9FB9
:10253000300D300D112490E080E045E34A95F1F72D
:102540000000019682179307C1F7E0CFA5E0B0E045
:10255000ECEAF2E10C94CC1F5B01E090AC01F0904E
:10256000AD0101E010E09E012B5F3F4F50E040E0E5
:1025700070E060E080E00E94E711182F882309F4E2
:102580004BC067018FEFC81AD80A60915102709151
:10259000520280915302909154020E9404176436B3
:1025A00071058105910580F104E010E09E012F5F27
:1025B0003F4F50E040E070E060E081E00E94E711B2
:1025C000F82E64E070E0C6010E94971311E09D812F
:1025D000981310E01F2159F10E94E91660935102EF
:1025E00070935202809353029093540289819A818E
:1025F000AB81BC8180934D0290934E02A0934F0219
:10260000B093500211E013C064E070E0C6010E9474
:1026100097139D818913C8CFF70181819281A3818E
:10262000B48189839A83AB83BC831111DFCF8091FE
:102630004D0290914E02A0914F02B0915002F501CF
:1026400080839183A283B383812F2596EAE00C9443
:10265000E81F0F931F93CF93DF93EC018B0146EAA2
:1026600052E10E947312882331F045E352E1B80130
:10267000CE010E947312DF91CF911F910F910895A7
:102680000F931F93CF93DF93C091AC01D091AD0115
:10269000CE01019624E0FB01DC0101900D922A9508
:1026A000E1F764E070E00E94971388836D817E817A
:1026B0008F8198850091490210914A0220914B0226
:1026C00030914C02601771078207930751F06093B5
:1026D000490270934A0280934B0290934C020E94ED
:1026E000B10FDF91CF911F910F9108950E94821A2F
:1026F0000E940D0D0E948F1A08950E94941A0E9444
:102700001E0D0E94AE1A08950E9476160E94681A45
:102710000E94F50C0E9476130E947D130E94030D07
:10272000FBCF9093AF018093AE0108950895FC0113
:10273000680F791F8FEF91E3E617F70709F4089503
:102740002191822728E030E087FF06C0880F892783
:1027500021503109C9F7F0CF880FFACFCF93DF931B
:10276000EB0186319C4711F50E94110B9D81992345
:1027700099F08A7A91E009F490E0909359028111DE
:1027800009C089E20E941D160E94A00B80E0DF9123
:10279000CF91089585E3F6CF80915902811104C04D
:1027A00089E20E942516F0CF85E3FBCF81E0EFCFD1
:1027B000CF93DF93EC01FB018581882309F4D2C01C
:1027C0009E0130572332310508F0B2C00E941F0C21
:1027D0009093750280937402FE01E150F047E2325B
:1027E000F10520F4EF58FF4D0C94BE1F8091740248
:1027F00081608093740293C0809175028860809399
:1028000075028DC0809174028260F3CF8091740252
:102810008460EFCF809174028860EBCF8091750265
:102820008160EDCF809175028260E9CF8091740262
:102830008061DFCF809174028062DBCF809174026F
:102840008064D7CF0E949506809174028068D1CFB2
:10285000809174028C60CDCF809175028360CFCF60
:10286000809174028E7FC5CF80917502877FC7CF1C
:10287000809174028D7FBDCF809174028B7FB9CF20
:1028800080917402877FB5CF809175028E7FB7CF1C
:10289000809175028D7FB3CF809174028F7EA9CF16
:1028A000809174028F7DA5CF809174028F7BA1CF20
:1028B0000E949506809174028F779BCF809174025D
:1028C000837F97CF809175028C7F99CF809174021E
:1028D00082FB992790F921E0922790FB82F990FBE7
:1028E00083F987CF80917502982F909591708E7F94
:1028F000892B90FB81F983CF90917402892F8F7B74
:1029000096FF806476CF0E94950690917402892F7D
:1029100097FB87F980586DCF81E00E94AD0C8091C4
:102920007402909175020E94240C0E94950680E02A
:10293000DF91CF91089580E0F0CF90917402892FBC
:102940008F7E94FF806155CF90917402892F8E7F86
:1029500090FF81604ECF90917502892F877F93FF02
:1029600088604DCF81E0E4CF0F931F93CF93DF9327
:10297000C42FD22FFC0185818823C9F040935C02CB
:102980000E94DD1690935B0280935A0280E28C0FC6
:10299000883040F4C77081E001C0880FCA95EAF71B
:1029A0000E944804DF91CF911F910F9108951091DB
:1029B0005C02141332C080915A0290915B020E9413
:1029C000F516883C910548F5C0E2CD0F1D17B9F00A
:1029D00080E2810F883040F4177081E001C0880FD9
:1029E0001A95EAF70E944F04C83048F481E09D2F01
:1029F000977001C0880F9A95EAF70E944804802FCB
:102A00000E943F04C83070F6D77081E001C0880F83
:102A1000DA95EAF70E944F04C5CF80E28C0F883028
:102A200008F6C77081E001C0880FCA95EAF7F2CFB7
:102A30000F93DB0188519C4787309105A0F5FC017D
:102A4000ED56FF4D0C94BE1F06E221EE41EE6AE109
:102A50007CE7CD010E94B41480E00F91089507E255
:102A600025EE45EE6BE17CE7F4CF06E221EE40EE89
:102A700068E17CE7EECF07E225EE44EE69E17CE712
:102A8000E8CF06E221EE42EE6CE17CE7E2CF07E21E
:102A900025EE46EE6DE17CE7DCCF08E221E045EE75
:102AA0006EE17CE7D6CF15968C91882319F01092B1
:102AB0005C02D3CF81E0D1CF909363028093620216
:102AC00008950E948511811103C080915D020895CF
:102AD000E0916202F0916302309729F00190F08159
:102AE000E02D0995089580E008950E9461150895EC
:102AF000E0916202F0916302309721F00280F3814D
:102B0000E02D09950895A3E0B0E0E9E8F5E10C9423
:102B1000D41F209160023091610228173907A1F07B
:102B20009093610280936002E0916202F0916302EF
:102B3000309751F023E029839B838A830084F185B9
:102B4000E02DCE01019609952396E2E00C94F01F4A
:102B5000A3E0B0E0EEEAF5E10C94D41F20915E0210
:102B600030915F0228173907A1F090935F0280939C
:102B70005E02E0916202F0916302309751F024E02E
:102B800029839B838A830084F185E02DCE01019601
:102B900009952396E2E00C94F01F409100015091BA
:102BA00001019A012E5F3F4F485F5F4F80E024177D
:102BB000350709F40895F90191919F019923B9F31B
:102BC0008F5FF5CF882371F02091000130910101D2
:102BD000F9013296285F3F4F9191981729F0E2173B
:102BE000F307D1F780E0089581E008959C01FC018E
:102BF00032969FEF80E04191461751F09F3F19F4C4
:102C0000411101C0982F8F5F8630A9F79F3F09F4CB
:102C10000895290F311D97FD3A95F90162830895B2
:102C2000FC01329608962191261303C0DF0111970B
:102C30001C92E817F907B9F70895682F80910001F1
:102C4000909101010E94F6150895682F809100016E
:102C5000909101010E9410160895E0910001F091F9
:102C60000101329686E0DF011D928A95E9F7089509
:102C700008950E9438160895811106C081E080935E
:102C800064020E943916089582E0F9CF83E08093B0
:102C900064020E94391608950E943C16089581E04E
:102CA000809364020E94391608950E944F16089579
:102CB000089508950E9459160895089508950E9450
:102CC00058160895CF930E945D160E94FF100E942F
:102CD0005E16C0E08C2F0E941110811105C0CF5FDD
:102CE000C830C1F7CF91089581E0FCCF85B78068E7
:102CF00085BF85B7806885BF08951F921FB61F9254
:102D000011248F939F93AF93BF938091650281119C
:102D100013C08091880290918902A0918A02B0919B
:102D20008B024196A11DB11D809388029093890268
:102D3000A0938A02B0938B02BF91AF919F918F9124
:102D40001F901FBE1F90189580919002843031F122
:102D50000E94CF021092650288E190E020E40FB655
:102D6000F894A895809360000FBE2093600083B70D
:102D7000817F846083BF83B7816083BF78948895A7
:102D800083B78E7F83BF0FB6F894A89580916000BB
:102D9000886180936000109260000FBE08950E94C9
:102DA00095060E94D402089582E084BD93E095BD0B
:102DB0009AEF97BD80936E0008952FB7F894809195
:102DC000880290918902A0918A02B0918B022FBF54
:102DD00008952FB7F89460918802709189028091CC
:102DE0008A0290918B022FBF08959C014FB7F894EF
:102DF0008091880290918902A0918A02B0918B0201
:102E00004FBF821B930B0895CF92DF92EF92FF92F8
:102E10002FB7F894C0908802D0908902E0908A027F
:102E2000F0908B022FBFA7019601261B370B480B92
:102E3000590BCA01B901FF90EF90DF90CF90089530
:102E400078941F921FB61F9211248F939F93AF9374
:102E5000BF938091880290918902A0918A02B091DB
:102E60008B020196A11DB11D809388029093890267
:102E7000A0938A02B0938B02BF91AF919F918F91E3
:102E80001F901FBE1F90189581E08093E00080E2A4
:102E90008093D8001092C9008FE19EE40197F1F76A
:102EA00000C0000087E090EBDC01809399029093D2
:102EB0009A02A0939B02B0939C0288E19CE00FB61B
:102EC000F894A895809360000FBE90936000FFCFA8
:102ED00088E19CE00FB6F894A895809360000FBE3F
:102EE00090936000FFCF8EE1489B02C08150E1F7D4
:102EF000489BFECF0895589880E28A95F1F7589A3A
:102F00000895FC013BE03A95F1F798E020E080E07D
:102F100031E040E14A95F1F7880F489B02C081609B
:102F2000232742E04A95F1F7000040E14A95F1F786
:102F3000915079F790E19A95F1F799B132E03A958D
:102F4000F1F7000040E14A95F1F791709227208156
:102F5000920F90830895A1E0B0E0E1EBF7E10C94CB
:102F6000D01F19828C017C01E60EF11C0E151F0585
:102F700041F481E09981911180E02196E6E00C9482
:102F8000EC1F0E947317CE0101960E948117F80171
:102F900081938F01EBCF509A589A08955098589A80
:102FA000E89AE9E6F0E080818C7F808308956150A3
:102FB000770B91E001C0990F6A95EAF720E031E0C4
:102FC000911108C0222391F0589A80E28A95F1F776
:102FD00058980895492F482339F0589A232740E2FA
:102FE0004A95F1F79695ECCF5898F9CF5898EDCFD0
:102FF000FF920F931F93CF93DF93EC018C01060F89
:10300000111DC017D10729F4CDB7DEB7E5E00C9448
:10301000ED1FF9900E947B1768E08F2D0E94D71753
:10302000F0CF1F920F920FB60F9211240F931F93A0
:103030002F933F934F935F936F937F938F939F93C0
:10304000AF93BF93EF93FF93CF93DF930F92CDB7DF
:10305000DEB719820E947317CE0101960E94811774
:10306000082F069506950695282F22952570902FF6
:103070009570290F922F937026952695920F982779
:1030800097708981982B09F05CC0043008F059C012
:1030900080E18A95F1F7589A509A82E08A95F1F783
:1030A00000C0589888E0089F80011124D801AD5FC6
:1030B000BE4F1696ED91FC9117973097A9F060914D
:1030C000AC017091AD0114962D913C911597260F8E
:1030D000371F11968D919C911297680F791F139647
:1030E0004C9113978C910995F801ED5FFE4F638128
:1030F000662351F02091AC013091AD01848195811E
:10310000820F931F0E94F8170E947B1780E18A9517
:10311000F1F758985098589A80E18A95F1F7F8019C
:10312000ED5FFE4F6081662351F02091AC0130913C
:10313000AD0181819281820F931F0E94AB170E9483
:1031400073170F90DF91CF91FF91EF91BF91AF91E6
:103150009F918F917F916F915F914F913F912F91AF
:103160001F910F910F900FBE0F901F9018950F9306
:103170001F93CF93DF93EC0104970CF04CC0F894AD
:10318000509A589885E08A95F1F700009C2F969503
:1031900095708C2F8570980F892F837096959695D2
:1031A00023E0CC0FDD1F2A95E1F7980F8E01092B44
:1031B0000E947B1700C068E0802F0E94D71780E133
:1031C0008A95F1F75098589A489B1EC087E090E086
:1031D00048991CC0FE01ED5FFE4F63816623F9F044
:1031E0002091AC013091AD0184819581820F931FB4
:1031F0000E94AB17811113C0509A589A7894DF91AE
:10320000CF911F910F91089500C0DECF019729F44F
:10321000509A589A789480E0F2CF00C0D9CF0E949B
:10322000731780E28A95F1F75898509A80E18A9551
:10323000F1F7CD5FDE4F6881662351F02091AC013C
:103240003091AD0189819A81820F931F0E94F817F6
:103250000E947B17789481E0D2CF80916E0208950E
:10326000089508959B01BA01909190029430E9F479
:103270008F708093E9009FEF8091E800915085FD69
:1032800006C085ED8A95F1F700009111F5CF809188
:10329000E80085FF0AC050E040E0C9010E94251BFC
:1032A0008091E8008E778093E800089543E050E035
:1032B000BC0182E00E9432190895CF93DF93EC01A4
:1032C00048E050E0BC0181E00E94321988E0FE0134
:1032D000A6E6B2E001900D928A95E1F7DF91CF91D9
:1032E000089580918F02811109C00E94B51C0E942F
:1032F000121D8091E20084608093E2000895109294
:103300008F0208950E944F16089560918C0281E00B
:10331000611101C080E00E944616089590919002CC
:1033200081E0943009F080E060918C020E944C169C
:10333000089542E061EC81E00E94311C42E261ECC0
:1033400082E00E94311C9091900281E0943009F05B
:1033500080E060918C020E943C1608958091920258
:10336000833009F461C030F48130D1F1823009F446
:103370009EC008958A3009F48AC08B3009F46FC06A
:10338000893009F050C080919102813209F04BC020
:103390008091950290919602029708F044C0809126
:1033A000E800877F8093E8008091E80082FF37C0C3
:1033B0009091F3008091F200029731F48091F10036
:1033C000813011F0863021F48091F10080936E02FB
:1033D0008091E8008B778093E8000E94651C23C0F1
:1033E00080919102813AF9F48091E800877F80937F
:1033F000E8008091950290919602892B61F468E033
:1034000086E692E070E00E94741B8091E8008B7762
:103410008093E800089560E090E080E0F3CF809131
:1034200090028111C1CF089580919102813AD9F71C
:103430008091950290919602892BA9F78091E800DE
:10344000877F8093E8008091E80080FFFCCF809127
:1034500025018093F1008091E8008E77BCCF8091A8
:103460009102813201F78091950290919602892B09
:10347000D1F68091E800877F8093E8000E94651C68
:1034800080919302809325010E9495060895809172
:103490009102813241F68091E800877F8093E800B5
:1034A0000E94651C8091940280936F020895809120
:1034B0009102813A09F0B7CF8091E800877F80932D
:1034C000E8008091E80080FFFCCF80916F02C1CFBF
:1034D00084B7877F84BF0FB6F894A8958091600069
:1034E000886180936000109260000FBE80E890E0D9
:1034F0000FB6F89480936100909361000FBE0E9414
:10350000551608950E94B51C0E94121DE2EEF0E0CF
:1035100080818460808378940E94911F08958BE15C
:1035200091E00E945C15089580919002853031F4FD
:1035300080919002853019F00E94CF1608950E9464
:10354000A41680918E02882399F30E946216882324
:1035500079F30E940F1B0E949506EACF08959A0105
:1035600040919702509198020E94B71A0895492FEE
:1035700055274330510519F168F44130510509F4DC
:1035800044C04230510509F445C090E080E050E06D
:1035900040E025C04132510549F142325105A9F7B9
:1035A00084E490E041EF52E061157105C1F082E3DF
:1035B00090E04FEB52E06130710589F0E6CF99273A
:1035C0008130910581F0009729F00297F1F6ECE344
:1035D000F2E002C0EEE6F2E0849190E0AF01F90182
:1035E000518340830895EEE4F2E0F6CF89E090E065
:1035F00044E852E06115710591F389E090E04DE9EE
:1036000052E06130710559F3C0CF82E190E04DEA9C
:1036100052E0E5CF8BE390E042E752E0E0CF80E17B
:1036200089BD82E189BD09B400FEFDCF8091D8003B
:103630008F7D8093D8008091E00082608093E000CD
:103640008091E00081FDFCCF0895AF92BF92CF92B0
:10365000DF92FF920F931F93CF93DF936C01EB01E7
:103660008A010E94841CF82E811123C001151105C6
:1036700039F0F80180819181C81BD90BC80ED91E81
:10368000B12CA12C2097A9F08091E80085FD22C0E3
:103690008091E8008E778093E80001151105A1F074
:1036A000F80180819181A80EB91EB182A08285E0C7
:1036B000F82E8F2DDF91CF911F910F91FF90DF900A
:1036C000CF90BF90AF9008950E94841C8823D1F2C0
:1036D000F82EEFCFF60181916F018093F1002197D1
:1036E000FFEFAF1ABF0ACECFFC01809197029091F5
:1036F000980286179707A0F06115710529F490913B
:10370000E8009E779093E80090E06115710551F410
:10371000911108C08091E80082FF34C080E00895D4
:10372000BC01F2CF809190028823C1F18530C1F1B4
:103730008091E80083FD30C08091E80082FDEACFEF
:103740008091E80080FFE1CF8091F3002091F200AA
:10375000382F6115710519F02830310558F091E0C6
:103760002830310509F090E02091E8002E77209371
:10377000E800CBCF81918093F100615071092F5FF8
:103780003F4FE7CF80919002882341F0853041F090
:103790008091E80083FFBECF81E0089582E0089524
:1037A00083E00895FC01809197029091980286171A
:1037B0009707A0F06115710529F48091E8008E77D4
:1037C0008093E80090E06115710551F4911108C0F3
:1037D0008091E80082FF35C080E00895BC01F2CFFF
:1037E000809190028823C9F18530C9F18091E80069
:1037F00083FD31C08091E80082FDEACF8091E8002E
:1038000080FFE1CF8091F3002091F200382F611505
:10381000710519F02830310558F091E02830310554
:1038200009F090E08091E8008E778093E800CBCF9C
:1038300084918093F1003196615071092F5F3F4F61
:10384000E6CF80919002882341F0853041F080914D
:10385000E80083FFBDCF81E0089582E0089583E012
:103860000895982F973028F08F708093E90081E0B9
:1038700008959093E900242F762F50E0981731F0A7
:103880007091EC002091ED005091F00021FD02C0FC
:103890009F5FE8CF3091EB003E7F3093EB0030919B
:1038A000ED003D7F3093ED003091EB0031603093BF
:1038B000EB007093EC002093ED005093F00020910A
:1038C000EE0027FDE5CF80E008958091910287FF0B
:1038D00013C08091E80082FF06C08091E8008B77DA
:1038E0008093E80004C0809190028111F2CF089586
:1038F000809190028823D9F38091E80080FFF8CF6F
:103900008091E8008E77ECCF2091E4003091E500C3
:1039100095E6A9012091EC00822F817020FF06C05E
:103920008091E80080FF06C080E008952091E800C3
:1039300022FD1AC080919002882389F0853089F099
:103940008091EB0085FD0FC02091E4003091E500EF
:1039500042175307F9F29150E1F684E0089582E0AE
:10396000089583E0089581E008950E94241D0E9437
:103970002C1DE0EEF0E0808181608083E8EDF0E0D6
:1039800080818F77808319BCA7EDB0E08C918E7F0A
:103990008C9380818F7E808310928F0208950F9385
:1039A0001F93CF93DF930E94241D0E942C1DC8ED0E
:1039B000D0E088818F778883888180688883888138
:1039C0008F7D888319BC1092900210928C02109205
:1039D0008E0210928D0200EE10E0F80180818B7F44
:1039E000808388818160888342E060E080E00E947B
:1039F000311CE1EEF0E080818E7F8083E2EEF0E02A
:103A0000808181608083808188608083F8018081EB
:103A10008E7F8083888180618883DF91CF911F9121
:103A20000F910895E8EDF0E080818F7E8083E7EDCF
:103A3000F0E080818160808384E082BF81E08093B8
:103A40008F020E94CF1C0895E8EDF0E080818E7F08
:103A500080831092E20008951092DA001092E10043
:103A600008951F920F920FB60F9211242F933F9338
:103A70004F935F936F937F938F939F93AF93BF9376
:103A8000EF93FF938091E10082FF0BC08091E200F1
:103A900082FF07C08091E1008B7F8093E1000E944C
:103AA000901F8091DA0080FF19C08091D80080FFBC
:103AB00015C08091DA008E7F8093DA008091D90062
:103AC00080FF96C080E189BD82E189BD09B400FE16
:103AD000FDCF81E0809390020E9471198091E100F6
:103AE00080FF19C08091E20080FF15C08091E20044
:103AF0008E7F8093E2008091E20080618093E200FB
:103B00008091D80080628093D80019BC85E08093B2
:103B100090020E9485198091E10084FF2BC0809162
:103B2000E20084FF27C080E189BD82E189BD89B5BB
:103B3000982F917080FFFBCF8091D8008F7D80936C
:103B4000D8008091E1008F7E8093E1008091E200B7
:103B50008F7E8093E2008091E20081608093E2009A
:103B600080918C02882309F449C084E080939002FC
:103B70000E948E198091E10083FF29C08091E200AC
:103B800083FF25C08091E100877F8093E10082E080
:103B90008093900210928C028091E1008E7F80933E
:103BA000E1008091E2008E7F8093E2008091E2004C
:103BB00080618093E20042E060E080E00E94311C7E
:103BC0008091F00088608093F0000E948219FF913C
:103BD000EF91BF91AF919F918F917F916F915F9185
:103BE0004F913F912F910F900FBE0F901F901895FE
:103BF00019BC109290020E947F1970CF8091E3004F
:103C000087FD93E090939002B3CF1F920F920FB66F
:103C10000F9211242F933F934F935F936F937F9352
:103C20008F939F93AF93BF93CF93DF93EF93FF93C4
:103C3000D091E900DF708091EC00C82FC17080FD49
:103C4000C0E81092E9008091F000877F8093F00037
:103C500078940E94491E1092E9008091F0008860DB
:103C60008093F000CD2BCF70C093E900FF91EF91CE
:103C7000DF91CF91BF91AF919F918F917F916F9184
:103C80005F914F913F912F910F900FBE0F901F901A
:103C90001895AAE2B0E0EFE4FEE10C94D31F81E9AD
:103CA00092E02091F100FC012193CF01F2E08939EB
:103CB0009F07B9F70E94AE198091E80083FF1EC1EB
:103CC00080919102909192029A3008F017C1E92FE9
:103CD000F0E0E656FF4D0C94BE1F803899F0823814
:103CE00009F00CC1809195028F70873008F006C1F1
:103CF0008093E9008091EB0085FB882780F9109282
:103D0000E90006C080918D0290918E02911182602F
:103D10009091E800977F9093E8008093F1001092D3
:103D2000F1008091E8008E77E5C0882309F4D3C0C4
:103D3000823009F0E3C0809193028111D6C0809156
:103D400095028F702FEF280F263008F0D7C0809390
:103D5000E9002091EB0020FFC8C0933031F480913E
:103D6000EB0080628093EB00C0C09091EB0090610B
:103D70009093EB0021E030E001C0220F8A95EAF732
:103D80002093EA001092EA008091EB008860EACF6D
:103D90008111B4C0109193021F778091E300807865
:103DA000812B8093E3008091E800877F8093E80077
:103DB0000E94651C8091E80080FFFCCF8091E300A9
:103DC00080688093E30082E0111183E08093900289
:103DD00095C08058823008F091C0809193029091F4
:103DE00094028C3D23E09207A1F583E08A838AE266
:103DF00089834FB7F894DE01139620E03EE051E24C
:103E0000E32FF0E050935700E49120FF03C0E295C8
:103E1000EF703F5FEF708E2F90E0EA30C0F0C796F2
:103E20008D939D932F5F243159F74FBF8091E80008
:103E3000877F8093E8006AE270E0CE0101960E94DD
:103E4000741B8091E8008B778093E80057C0C09680
:103E5000E7CF6091950270919602AE014F5F5F4F80
:103E60000E94AF1ABC01892B09F448C09091E80068
:103E7000977F9093E80089819A810E94D21BE1CFBD
:103E80008038E1F58091E800877F8093E800809199
:103E90008C028093F10045CF811130C09091930244
:103EA000923060F58091E800877F8093E8009093DE
:103EB0008C020E94651C80918C02882311F084E0A2
:103EC00005C08091E30087FDFACF81E080939002E6
:103ED0000E94991913C080919302813079F481E096
:103EE000933009F080E080938E021092E900809177
:103EF000E800877F8093E8000E94651C8091E800BD
:103F000083FF0AC08091E800877F8093E80080915A
:103F1000EB0080628093EB00AA96E3E00C94EF1F25
:103F20000895CF93809190028823A1F0C091E90079
:103F3000CF709091EC00892F817090FD80E8C82BA4
:103F40001092E9008091E80083FD0E94491ECF7025
:103F5000C093E900CF9108950E94B51C1092900281
:103F60000895E8EDF0E08081806180838AE18A95A0
:103F7000F1F700C08091D90081700895EE0FFF1F06
:103F80000590F491E02D09942F923F924F925F9209
:103F90006F927F928F929F92AF92BF92CF92DF9259
:103FA000EF92FF920F931F93CF93DF93CDB7DEB7BE
:103FB000CA1BDB0B0FB6F894DEBF0FBECDBF099452
:103FC0002A88398848885F846E847D848C849B84A9
:103FD000AA84B984C884DF80EE80FD800C811B81B7
:103FE000AA81B981CE0FD11D0FB6F894DEBF0FBEE6
:103FF000CDBFED010895FB01DC0104C08D9101905E
:10400000801921F441505040C8F7881B990B08953E
:10401000FB01DC0102C001900D9241505040D8F7E5
:104020000895F999FECF92BD81BDF89A992780B580
:104030000895A8E1B0E042E050E00C945520DC0186
:10404000A40FB51F4150504048F0CB01840F951F7D
:104050002E910E94302041505040D0F70895262FD5
:10406000F999FECF92BD81BDF89A019700B402166E
:1040700039F01FBA20BD0FB6F894FA9AF99A0FBE1C
:1040800008950396272F0E9430200E942F20252F6D
:104090000E943020242F0C9430200196272F0E945C
:1040A00030200C942F20DC01CB01FC01F999FECFCC
:1040B00006C0F2BDE1BDF89A319600B40D924150B0
:1040C0005040B8F70895F894FFCF97049704E70499
:1040D000E7044C05C604C604C6046805D905E8050E
:1040E000E8053014A4143814021406143C140A14FD
:1040F00040144C1416149D141A1450141E14541405
:104100007C1422145814831428145E1466140E149C
:104110004414121448142C14621472148C149B143A
:10412000FC133414AB1435153B1524152F1541150C
:1041300047154D156D1E951E7E1F951E7E1FC81EB0
:08414000E91E7E1F401F4C1F09
:104148001A02010000000100000000000000040144
:1041580000000004050000000000002D195D193161
:10416800193019561901E200E900EA00B500B60055
:10417800B700CD008301CC008A019201940121028D
:10418800230224022502260227022A02B300B400D1
:104198006F0070009F01CB019F02A002818283E221
:1041A80000E900EA00B500B600B700CD008301CCF5
:1041B800008A019201940121022302240225022689
:1041C8000227022A02B300B4006F0070009F01CBDF
:1041D800019F02A002818283F1C6303233F5F031AB
:0E41E8003792F6F7679593356636FFFF400273
:00000001FF
